:020000040800F2
:10000000C006002091010008990100089B0100082A
:100010009D0100089F010008A101000800000000E8
:10002000000000000000000000000000A301000824
:10003000A501000800000000A70100084D04000809
:10004000AB010008AB010008AB010008AB010008E0
:10005000AB010008AB010008AB010008AB010008D0
:10006000AB010008AB010008AB010008AB010008C0
:10007000AB010008AB010008AB010008AB010008B0
:10008000AB010008AB010008AB010008AB010008A0
:10009000AB010008AB010008AB010008AB01000890
:1000A000AB010008AB010008AB010008AB01000880
:1000B000AB010008AB010008AB010008AB01000870
:1000C000AB010008AB010008AB010008AB01000860
:1000D000AB0100086D050008AB010008CD05000864
:1000E000AB010008AB010008AB01000800F002F80A
:1000F00000F03FF80AA090E8000C82448344AAF183
:100100000107DA4501D100F034F8AFF2090EBAE880
:100110000F0013F0010F18BFFB1A43F0010318473B
:100120000408000024080000103A24BF78C878C1F1
:10013000FAD8520724BF30C830C144BF04680C60ED
:10014000704700000023002400250026103A28BF35
:1001500078C1FBD8520728BF30C148BF0B60704739
:10016000642900F07D80002070471FB51FBD10B5C9
:1001700010BD00F02AF91146FFF7F7FF00F02EFB43
:1001800000F048F903B4FFF7F2FF03BC00F050F9A8
:100190000948804709480047FEE7FEE7FEE7FEE71B
:1001A000FEE7FEE7FEE7FEE7FEE7FEE70448054957
:1001B000054A064B704700005D040008ED0000088A
:1001C000C0000020C0060020C0020020C0020020A5
:1001D0000FB41CB5074B06AA7B44694600900598EE
:1001E00000F0DBF80020694600F0EAF81CBC5DF87E
:1001F00014FB0000E50100002DE9F0410E46044625
:10020000002020622046E168884730B3252805D0C9
:10021000D4E901219047206A401CF2E7E1682046BA
:1002200000278847050018D0A5F14100192802D8F9
:1002300020354FF400673246294620462760FFF7F5
:100240008FFF40B1012804D0F61D26F007060836BE
:10025000D8E7361DD6E72846DAE7206ABDE8F08100
:100260002DE9F0410646002410687529314616A58F
:1002700010D0AFF30080002802DA404213A507E057
:1002800031688A0701D512A502E0490704D511A5F6
:10029000012401E0AFF3008000210A2206F12407C7
:1002A00009E0B0FBF2FCB0FBF2F302FB1C003030C3
:1002B00078541846491C0028F3D123462A46304674
:1002C000BDE8F04100F00BB8000000002D00000078
:1002D0002B000000200000007047704770472DE998
:1002E000F0470D4699469246044600F124080168FD
:1002F000880604D5E06921F01001216000E00120AA
:10030000A84201DD471B00E00027A1697A1902EB32
:100310000900081AA0612078C00602D42046AFF375
:100320000080002608E0D4E901211AF80600904771
:10033000206A401C761C20624E45F4DB2078C00603
:100340000AD52046AFF3008006E0D4E90121302031
:100350009047206A401C2062381EA7F10107F4DC98
:1003600007E0D4E9012118F805009047206A401CF5
:100370002062281EA5F10105F3DC2046AFF30080C2
:100380002078000602D50220BDE8F0870120FBE7B7
:1003900001694A1C02610878704700B58FB0CDE949
:1003A00001310021059105497944CDE90310114639
:1003B0006846FFF721FF0FB000BD0000E5FFFFFF1B
:1003C0000A6802F8010B0A607047754600F02CF8C5
:1003D000AE4605006946534620F00700854618B032
:1003E00020B5FFF7E3FEBDE820404FF000064FF0D8
:1003F00000074FF000084FF0000BAC46ACE8C00916
:10040000ACE8C009ACE8C009ACE8C00921F00701BC
:100410008D46704710B50446AFF300802046BDE816
:100420001040FFF7AFBE00000048704710000020EA
:1004300001491820ABBEFEE726000200704700000D
:100440008068084018BF01207047000040F280001B
:10045000C2F20000016801310160704782B041F2D0
:100460000400C4F2020050F8041C002241F0010113
:1004700040F8041C0168CFF6FF021140016050F8FB
:10048000041C4FF6FF72CFF6F662114040F8041CD0
:1004900050F8041C21F4802140F8041C016821F468
:1004A000FE0101604FF41F014160002101910091A4
:1004B00050F8041C41F4803140F8041C50F8041C2E
:1004C00001F400310091019901310191009919B9AC
:1004D0000199B1F5A06FF1D150F8041C890354BF04
:1004E0000021012100910099012936D142F2000139
:1004F000C4F202010A6842F010020A600A6822F09F
:1005000007020A600A6842F002020A60016801609C
:1005100001680160016841F480610160016821F4B3
:100520007C110160016841F4E811016050F8041C7D
:1005300041F0807140F8041C50F8041C8901FBD57F
:10054000016821F003010160016841F002010160CE
:10055000016801F00C010829FAD14EF60850CEF2DC
:1005600000004FF00061016002B0704710B543F623
:100570000C00C4F2010030F80C1C090658BF10BD75
:1005800040F27003C2F20003196879B140F2840EA0
:100590004A1CC2F2000E1A60DEF8004091F800C05A
:1005A0002CB1621ECEF8002005D102E003E01278E3
:1005B0000AB900221A6021B15FFA8CF120F8081CF8
:1005C00010BD018821F08001018010BD10B544F6F6
:1005D0000C00C4F2000030F80C1C090658BF10BD16
:1005E00040F27403C2F20003196879B140F2880E38
:1005F0004A1CC2F2000E1A60DEF8004091F800C0FA
:100600002CB1621ECEF8002005D102E003E0127882
:100610000AB900221A6021B15FFA8CF120F8081C97
:1006200010BD018821F08001018010BD40F27002F0
:10063000C2F200021368002B1CBF0020704710603C
:1006400040F28400C2F20000016043F60C00C4F2E4
:100650000100018841F0800101800088002818BF56
:100660000120704744F60002C4F20002118811F024
:10067000800118BF9080002918BF012108467047EB
:1006800040F27800C2F20000B0F9040070470000A8
:1006900040F27800C2F20000B0F90200704700009A
:1006A00040F27800C2F20000B0F90000704700008C
:1006B00080B54EF2041C41F63F11CEF2000CC0F2A0
:1006C00001014CF8F01C4EF62351CEF20001F0224D
:1006D0000A7000214CF8EC1C07214CF8F41C41F284
:1006E0001401C4F202014FF480228A6044F21C22F9
:1006F0004A6001220A6040F6000142F22222C4F25E
:100700000101C0F222220A6044F2A442C4F244422F
:100710004A6044F20042C4F68402C1F8002440F664
:10072000044144F68822C4F20101C4F284420A6002
:1007300044F24442C4F22442C1F8002442F260323E
:1007400043F60C0ECA60C4F2010E40F271222EF87C
:10075000042C44F60C02C4F200024FF49C7322F8FD
:10076000043C0C23138013880020AEF8003042F2C2
:100770000443C4F20103C3F6E070D8604FF40010E4
:10078000986242F2075018634FF480701860586006
:100790000820C4F202004FF4B461016003F1480183
:1007A000816040F27801C2F20001C1600321416022
:1007B0002021CCF800108021CCF80010BEF80010E9
:1007C00041F40051AEF80010118841F4005111803D
:1007D000016841F00101016080BD000082B042F279
:1007E000084A40F60049C4F2010AC4F20109FFF7C1
:1007F0005FFF40F28C0540F6B93BC2F200050FF2F4
:10080000101818E001F14000C0B2FFF72BFFFFF70E
:1008100037FF0746FFF73CFF0646FFF741FF044658
:10082000284641463A4633460094FFF7D1FC284615
:100830003221FFF7FBFEDAF800004FF4005140F0E0
:100840000100CAF800004846FFF7FAFD01281FD151
:1008500048462021FFF7F4FD01281FD148464FF4F8
:100860000071FFF7EDFD01281ED148464FF480715D
:10087000FFF7E6FD01281DD148464021FFF7E0FDC6
:10088000012823D040F20800F827C2F2000017E048
:1008900040F20000F027C2F2000011E040F2020036
:1008A000F127C2F200000BE040F20400F227C2F28E
:1008B000000005E040F20600F427C2F2000000BF8D
:1008C0000221FFF7B3FE3846FFF7CCFEFFF7E0FE4C
:1008D0000746FFF7E5FEC7F3C751394409B25F4544
:1008E0004FEA21218EDAB7F57A7FFFF68BAFC0F39E
:1008F000C751014409B258454FEA212102DAB0F547
:100900007A7F02DA01F160007EE770207CE700BFA9
:10091000563D256420583D256420593D25640D0A27
:100920000000000044090008000000200C00000046
:10093000280100085009000810000020B00600003F
:100940004401000830005E0076003C003E000000DC
:04000005080001915D
:00000001FF
