:020000040800F2
:10000000B80600208901000891010008930100084A
:100010009501000897010008990100080000000000
:100020000000000000000000000000009B0100082C
:100030009D010008000000009F010008F50600086F
:10004000A3010008A3010008A3010008A301000800
:10005000A3010008A3010008A3010008A3010008F0
:10006000A3010008A3010008A3010008A3010008E0
:10007000A3010008A3010008A3010008A3010008D0
:10008000A3010008A3010008A3010008A3010008C0
:10009000A3010008A3010008A3010008A3010008B0
:1000A000A3010008A3010008A301000899080008A3
:1000B000B5090008A3010008E1090008A301000830
:1000C000A3010008A3010008A30100086D050008B2
:1000D000A3010008A3010008A3010008D10E000835
:1000E000A3010008A3010008A301000800F002F822
:1000F00000F03AF80AA090E8000C82448344AAF188
:100100000107DA4501D100F02FF8AFF2090EBAE885
:100110000F0013F0010F18BFFB1A43F0010318473B
:100120006418000084180000103A24BF78C878C111
:10013000FAD8520724BF30C830C144BF04680C60ED
:10014000704700000023002400250026103A28BF35
:1001500078C1FBD8520728BF30C148BF0B60704739
:100160001FB51FBD10B510BD00F031F81146FFF7E7
:10017000F7FF00F0B7FF00F04FF803B4FFF7F2FF0E
:1001800003BC00F057F800000948804709480047C1
:10019000FEE7FEE7FEE7FEE7FEE7FEE7FEE7FEE737
:1001A000FEE7FEE704480549054A064B7047000094
:1001B00089070008ED000008B8000020B8060020FC
:1001C000B8020020B802002070477047704775469B
:1001D00000F02CF8AE4605006946534620F00700B3
:1001E000854618B020B5FFF7DDFFBDE820404FF091
:1001F00000064FF000074FF000084FF0000BAC4630
:10020000ACE8C009ACE8C009ACE8C009ACE8C0097A
:1002100021F007018D46704710B50446AFF300800A
:100220002046BDE81040FFF7A8BF00000048704717
:100230001000002001491820ABBEFEE72600020096
:100240007047000080B50120012100F033F9012042
:100250000021BDE8804000F02DB900002DE9F047F5
:10026000CA7802F00F0CD30644BF8B784CEA030C1B
:1002700009880B0625D082465AF8144B00F1100E5F
:1002800000254FF001094FF00F08002706E000BFDE
:100290001E600137082F05F1040511D009FA07F691
:1002A0000E42F6D008FA05F324EA03030CFA05F42B
:1002B0001C43282A5346EBD0482AEAD17346E7E785
:1002C0000460B1F5807F38BFBDE8F087436800F176
:1002D000100E00F1140900254FF4807A4FF00F083A
:1002E000002705E034600137082F05F1040512D01E
:1002F0000AFA07F404EA0106A642F4D108FA05F660
:10030000B3430CFA05F63343282A4E46EAD0482A6E
:10031000E9D17646E6E74360BDE8F087C06808406B
:1003200018BF0120704700004161704701617047AC
:100330001023002A08BF1423C1507047F0B587B0BE
:1003400043F200040646C4F20104FFF77BFF41F2CA
:100350000500012100F0A2F82020C1F60200A4F55A
:10036000205501AF019028463946FFF777FF8020DE
:10037000C1F60200019028463946FFF76FFF402082
:10038000C0F20240019028463946FFF767FF10206F
:10039000C1F20200019028463946FFF75FFF204670
:1003A00000F03AF94FF0827002904FF40030039061
:1003B0000120C0F2002004903820059002A92046B8
:1003C00000F074F92046012100F01CF920460221BA
:1003D00000F056F90028F9D02046314600F064F9C3
:1003E0002046012100F04CF90028F9D028461021C0
:1003F0000122FFF79DFF284610210022FFF798FFFA
:100400002046002100F0FEF807B0F0BD10B5C1781D
:1004100000294EF20011CEF200011AD04EF60C5215
:10042000CEF200021268072323EA12220F23C2F140
:10043000040C23FA02F24378847890F800E003FA7F
:100440000CF322401A43120101EB0E0383F8002340
:1004500000E080310078012300F01F0203FA02F26D
:10046000C0F3421041F8202010BD0000002941F2E5
:100470001C01C4F202010A680CBF22EA000010430A
:1004800008607047002941F21001C4F202010A68B5
:100490000CBF22EA0000104308607047002941F2B7
:1004A0001801C4F202010A680CBF22EA00001043DE
:1004B00008607047002941F20C01C4F202010A6889
:1004C0000CBF22EA000010430860704710B541F2EB
:1004D0000404C4F20204226802F00C02082A41F269
:1004E0000022C0F27A021CD12368D4F800C0C3F302
:1004F000834E5FEACC330EF1020C06D440F60012B4
:10050000C0F23D020CFB02F20BE023689B0302D415
:100510000CFB02F205E040F60012C0F23D020CFBBB
:1005200002F20260226841F67213C2F30312C0F6AF
:1005300000039A5C0168D14041602268C2F3022244
:100540009A5C21FA02F282602268C2F3C2229A5CAB
:1005500041F65E13D140C1602268C0F60003C2F3C9
:1005600081329A5CB1FBF2F1016110BD70B543F2CA
:100570000800C4F2010000BF01880906FCD443F260
:100580000004C4F20104204600F08CF840F290060A
:10059000C2F20006A4F52055307028468021FFF7EE
:1005A000BDFE012809D128468021FFF7BDFE204667
:1005B0000021BDE8704000F077B8A4F56C4500BF9D
:1005C0002846402100F0B8FC0028F9D031782846B0
:1005D00000F030FD307840F2A801C2F2000108704E
:1005E0004EF28410CEF2000008210160BFF34F8F5D
:1005F000204660210022BFF36F8FBDE8704000F0FD
:1006000045B800000288002918BF012122F04002ED
:1006100042EA81110180704780B543F60001C4F2BF
:100620000001884218D043F60041C4F2000188421C
:100630001AD043F20001C4F20101884218BF80BD04
:100640004FF480500121FFF735FF4FF48050002117
:10065000BDE88040FFF72EBF4FF480400121FFF737
:1006600011FF4FF4804006E04FF400400121FFF7F6
:1006700009FF4FF400400021BDE88040FFF702BFB2
:100680000089084018BF01207047000009090123B4
:1006900003FA01F1002A82880CBF22EA010111430A
:1006A0008180704780897047818170472DE9F041D2
:1006B00002880B8802F4415C4A88B1F804E043EAFE
:1006C0000C03CC881A430D8942EA0E024E8922435C
:1006D0008F892A43B1F80E8032433A4342EA080236
:1006E0000280828B22F400628283098A0182BDE843
:1006F000F081000040F29C00C2F20000016811B1DC
:1007000001680139016040F20400C2F20000016892
:10071000013101607047000041F20400C4F20200A0
:10072000016801F00C01082941F20021C0F27A01B0
:1007300017D102680368C2F38342DB0302F10202AD
:1007400005D440F60011C0F23D01514309E00368B1
:100750009B0301D4514304E040F60011C0F23D0177
:10076000514340F20002C2F200021160006841F6FB
:100770006211C0F30310C0F60001085C116821FA91
:1007800000F010607047000082B041F20400C4F233
:10079000020050F8041C002241F0010140F8041C42
:1007A0000168CFF6FF021140016050F8041C4FF6BB
:1007B000FF72CFF6F662114040F8041C50F8041C9A
:1007C00021F4802140F8041C016821F4FE0101603D
:1007D0004FF41F01416000210191009150F8041C69
:1007E00041F4803140F8041C50F8041C01F400313D
:1007F0000091019901310191009919B90199B1F55F
:10080000A06FF1D150F8041C890354BF00210121CD
:1008100000910099012936D142F20001C4F202018F
:100820000A6842F010020A600A6822F007020A60B1
:100830000A6842F002020A60016801600168016012
:10084000016841F480610160016821F47C1101605C
:10085000016841F4E811016050F8041C41F0807116
:1008600040F8041C50F8041C8901FBD5016821F0F4
:1008700003010160016841F002010160016801F0BB
:100880000C010829FAD14EF60850CEF200004FF0C4
:100890000061016002B07047F0B581B042F60044DB
:1008A000C4F201042046082100F0CEF8A0B340F2C3
:1008B000A005C2F20005287820B3204600F0C2F857
:1008C00040F2A406C2F200063168002708443060F6
:1008D000306840F29401C2F200010860086848F6EE
:1008E0008901C8F68801A0FB0101480940F208010E
:1008F000C2F2000108602046002100F089FA2F7042
:10090000376009E0012028702046002100F088FAB5
:100910002046022100F07CFA2046092101B0BDE802
:10092000F04000F075B8000070B588B004200121D7
:100930000125FFF7B3FD01200121FFF7AFFD40F2D4
:10094000004042F60044C2F60300C4F201040790DE
:10095000A4F5105007A9FFF781FC4FF400600121B6
:10096000FFF79CFD4720049042F20F70059000268F
:1009700004A920468DF8186000F054FA20460121A1
:1009800000F04AF80820CDE9010501A92046ADF89C
:100990000C6000F065F840F21B20C0F200100090DF
:1009A0006846FFF733FD20460921012200F0A8F92F
:1009B00008B070BD80B54FF08040042100F044F8CD
:1009C000002808BF80BD4FF08040042100F020F8CF
:1009D00040F2AC00C2F2000001680131016080BD4C
:1009E00010B540F60004C4F200042046042100F0D3
:1009F0002BF8002808BF10BD2046042100F008F89D
:100A000040F2B000C2F2000001680131016010BD87
:100A1000C9430182704700000288002918BF0121E4
:100A200022F001021144018070470000B0F8442018
:100A3000002918BF01216FF3DF3242EAC131A0F86B
:100A400044107047808C7047028A80890A4000EA0F
:100A5000010018BF0122002818BF01201040704774
:100A6000F0B50A88082A29D0042A52D0002A7BD15E
:100A70004B88B1F804C0B1F808E0028C40F6FF36AC
:100A800022F001020284024632F8184F058CC4F2AB
:100A90000006B0424FF6FC7600F38F80B0F1804F35
:100AA00000F09E8040F20047C4F20007B84200F018
:100AB000978040F60007C4F200078EE04B88B1F83B
:100AC00004C0B1F808E0028C40F6FF3722F48072CF
:100AD0000284024632F81C4F058C6FF44056C4F273
:100AE0000007B84206F5145600F38B80B0F1804F32
:100AF00000F0998040F20047C4F20007B84200F0CD
:100B0000928040F60007C4F20007B84200F08B80E4
:100B10008EE04B88B1F804C0B1F808E0028C40F6D2
:100B2000FF3722F010020284024632F8184F058C7B
:100B30006FF00306C4F20007B842A6F1AD0600F359
:100B40008880B0F1804F00F0968040F20047C4F2F8
:100B50000007B84200F08F8040F60007C4F200079B
:100B6000B84200F088808AE04B88B1F804C0B1F840
:100B700008E0028C40F6FF3622F4805202840246DE
:100B800032F81C4F058CC4F20006B04246F6FF5600
:100B900000F38980B0F1804F00F0978040F2004769
:100BA000C4F20007B84200F0908040F60007C4F29B
:100BB0000007B84200F089808AE040F60047C4F29E
:100BC0000007B8420CD042F60047C4F20107B84211
:100BD00006D043F20047C4F20107B84218BF083EEE
:100BE00035402B4324F0F3044CEA0E1743F0010385
:100BF000274307830384C988038B23F00C030383F3
:100C00007AE040F60047C4F20007B8420BD043F246
:100C10000047C4F20107B84205D042F60047C4F2CB
:100C20000107B84204D14CF6FF761B0206F5345694
:100C300035402B4324F0F3044CEA0E1743F4807341
:100C4000274387830384C988838B23F00C03838322
:100C500052E040F60047C4F20007B8420BD043F21E
:100C60000047C4F20107B84205D042F60047C4F27B
:100C70000107B84203D14FF6FC761B012D3E3540EB
:100C80002B4340F6FF452C4044EA0E3743F0100357
:100C900047EA0C2707830384C988038B090223F4DE
:100CA0004063038328E040F60047C4F20007B842DF
:100CB0000BD043F20047C4F20107B84205D042F618
:100CC0000047C4F20107B84202D14CF6FF761B037D
:100CD00035402B4340F6FF454FEA0E372C4047EA9C
:100CE0000C2743F48053274387830384C988838B6D
:100CF000090223F440638383108808431080F0BD09
:100D0000002A82890CBF22EA0101114381817047C8
:100D1000B0B5028C22F001020284038C8288B0F804
:100D200018C00C8923F002032343A0F180444D88AE
:100D3000A4F59634B1F800E04FEAB424072C43EA56
:100D4000050313D8012505FA04F414F0E50F0DD0BE
:100D50004C8923F00C0324F004048D8823438C89F0
:100D60002B4322F44072CD8922432A432CF0730591
:100D700045EA0E0582800583C98881860384B0BD5B
:100D8000028B22F00802114301837047B0B5028C38
:100D900022F010020284038C8288B0F818E00C89DB
:100DA0004D88B1F800C02C4343F2004523F02003E6
:100DB000C4F20105A84243EA041305D042F60044F8
:100DC000C4F20104A04211D14C896FF0400523F018
:100DD000C00305EA04148D88234343EA05138C8974
:100DE000CD8922F440622C4342EA84022EF4E64587
:100DF00045EA0C2582800583C98801870384B0BD3C
:100E0000028B22F4006242EA012101837047000054
:100E1000028C22F4007242EA012101847047000032
:100E20008184704740F6FF33B0F800C0C4F200037D
:100E300098420FDCB0F1804F1ED040F20043C4F264
:100E40000003984218D040F60003C4F20003984211
:100E500012D016E040F60043C4F2000398420BD0D3
:100E600043F20043C4F20103984205D042F6004326
:100E7000C4F20103984204D14B882CF0700243EA7B
:100E8000020C41F2004240F48063C4F2000293423B
:100E900004D0CA882CF4407342EA030CA0F800C0C6
:100EA0008A888285A0F18042A2F596320B884FEAAB
:100EB000B222072A038507D8012303FA02F212F0AF
:100EC000E50F1CBF097A018601218182704700006D
:100ED00010B544F60004C4F20004204640F2266136
:100EE00000F030F820B1204640F2266100F012F800
:100EF000204640F2255100F025F8002808BF10BD1B
:100F0000204600F093F8C1B22046BDE8104000F042
:100F100091B80000090A012202FA01F1C9430180D7
:100F2000704700008289002918BF012122F4005275
:100F300042EA4131818170470088084018BF012092
:100F400070470000C1F34212022A06D0012A14BFE2
:100F500000F1140200F10C0201E000F1100212880D
:100F6000008801F01F03090ADA40C840104000F071
:100F70000100704770B586B00446008A0D46C988E6
:100F800020F4405008432082A0894EF6F311084017
:100F9000A9882A896B89084310431843A081A08A35
:100FA000A98920F44070084301AEA0823046FFF7C3
:100FB0008DFA43F6000106F10800C4F201018C42EB
:100FC00008BF06F10C0000681922B4F90C10504358
:100FD0002A680123B1F1FF3FC8BF022302FA03F1DF
:100FE000B0FBF1F048F21F51C5F2EB11A0FB012359
:100FF0005A096FF0630302FB0300B4F90C300326B7
:10100000B3F1FF3FC8BF042600FA06F000F132003A
:10101000A0FB01014FF00700C8BF0F2000EA5110EC
:1010200040EA0210208106B070BD000080886FF396
:101030005F2070476FF35F2181807047F0B587B004
:10104000052001210126FFF711FA4720ADF8100015
:101050000020CFF6FF7004AD0027CDF812004FF04E
:1010600080402946ADF81670FFF7DCFE40F600041C
:10107000C4F2000420462946FFF7D4FE042001AD47
:10108000CDE901064FF080402946ADF80C70FFF71E
:10109000E7FC20462946FFF7E3FC4FF0804004219F
:1010A0000122FFF72DFE204604210122FFF728FE32
:1010B0001C20C0F200106D4600902846FFF7A6F9EC
:1010C0001E208DF800002846FFF7A0F94FF0804061
:1010D0000121FFF7A1FC20460121FFF79DFC07B08D
:1010E000F0BD000042F60044C4F2010400F03EFBF3
:1010F000FFF7A4FF40F2AC00C2F200000021016043
:1011000040F2B00040F2980B40F2700540F2800AC5
:1011100040F29C08C2F20000C2F2000BC2F20005CD
:10112000C2F2000AC2F200084FF060090226016014
:1011300006E000BF012040F20C01C2F2000108707D
:1011400000F0B8FA40F2A807C2F200073878FFF7BB
:10115000F5F897F90000002200F078017839B1FA2B
:1011600081F14909002848BF012211423AD100F01B
:101170001F001F2836D040F20C00C2F20000007899
:10118000012869D19BF80010032965D06020C0F2C6
:10119000010028604FF40020A8600020C0F61C4029
:1011A000686020462946FFF7B3FD0420C0F61C40C6
:1011B000CAF8040020465146CAF80090CAF80860F0
:1011C000FFF7E4FD40F2A800C2F20000007810F042
:1011D0007E0FB5D010F00E0F4FF0020008BF0320B5
:1011E000A9E700BF40F20400C2F20000006840F628
:1011F000B93188420ADB9BF8000040F2040200216A
:10120000C2F20002013011608BF800009BF8000070
:10121000032800F0C280012840F007816020C0F25E
:10122000010028604FF40020A8600020C0F6B8300C
:10123000686020462946FFF76BFD0420C0F6B830F1
:10124000CAF8040020465146CAF80090CAF808605F
:10125000FFF79CFDE9E000BF032800F07881022839
:101260007FF46EAF0420C1F20400CAF804002046E7
:101270005146CAF80090CAF80860FFF787FD602061
:10128000C0F2010028604FF40020A8600020C0F6E2
:101290001C40686020462946FFF73AFD40F2A8004E
:1012A000C2F20000007840071BD50420C1F23010C4
:1012B000CAF8040020465146CAF80090CAF80860EF
:1012C000FFF764FD6020C0F2010028604FF40020A9
:1012D000A8600020C0F6FC00686020462946FFF7A1
:1012E00017FD40F2A800C2F200000078800717D571
:1012F0000420C0F63C70CAF8040020465146CAF8E3
:101300000090CAF80860FFF741FD0420C0F2A46015
:10131000686020462946C5F80090AE60FFF7F8FCEB
:1013200040F2A800C2F200000078B8B90420C0F66C
:101330007460CAF8040020465146CAF80090CAF802
:101340000860FFF723FD0420C0F2DC5068602046EF
:101350002946C5F80090AE60FFF7DAFC3220C8F8E5
:10136000000000BFD8F800000028FBD16020C0F2C8
:10137000010028604FF40020A8600020C0F6E4407F
:10138000686020462946FFF7C3FC0420C0F6E4400D
:10139000CAF80090CAF808607CE1602740F20009B2
:1013A000C0F201074FF40026C0F6AC59204629468A
:1013B0002F60AE60C5F80490FFF7AAFC20465146A6
:1013C000CAF80070CAF80860CAF80490FFF7DEFC9B
:1013D0004FF4E170C8F80000D8F800000028FBD1F5
:1013E0006020C0F2010028604FF40020A8600027B0
:1013F000204629466F60FFF78BFC04204FF0600900
:101400000226CAF8040020465146CAF80090CAF8DD
:101410000860FFF7BBFC9BF8000040F20C01C2F231
:10142000000101300F708BF800009BF800000428C9
:1014300068D142F22830C8F8000000BFD8F8000098
:101440000028FBD1A4F5005738464FF40041FEF7C1
:101450006BFF0A20C8F80000D8F800000028FBD174
:1014600038464FF40041FEF761FF00BF9BF80000D3
:1014700004287FF465AE38464FF40041FEF754FF70
:101480000A20C8F8000000BFD8F800000028FBD1EF
:1014900038464FF40041FEF749FF40F20800C2F21F
:1014A000000000682228E1D89BF80000294601309E
:1014B0008BF800004FF4AF50E8804FF48020C5F85F
:1014C00002002046A5F80090AE60FFF721FC042042
:1014D000C1F2E050CAF8040020465146CAF8009014
:1014E000CAF80860FFF752FC4FF44870C8F80000D3
:1014F000D8F800000028FBD140F20C00C2F2000036
:101500000670B3E76020C0F2010028604FF40020AD
:10151000A8600020C0F61C40686020462946FFF7FE
:10152000F7FB0420C0F61C40CAF8040020465146D0
:10153000CAF80090CAF80860FFF728FC6420C8F8D1
:10154000000000BFD8F800000028FBD1F2E504201D
:10155000C0F63400CAF8040020465146CAF800908C
:10156000CAF80860FFF712FC6020C0F20100286092
:101570004FF40020A8600020C1F25C206860204683
:101580002946FFF7C5FB40F2A800C2F20000007830
:1015900080061AD50420C0F63400CAF8040020469C
:1015A0005146CAF80090CAF80860FFF7EFFB6020C8
:1015B000C0F2010028604FF40020A8604FF0616085
:1015C000686020462946FFF7A3FB40F2A800C2F25C
:1015D0000000007840061CD500206027C0F2A460FF
:1015E000C0F201074FF40026CAF804002046514615
:1015F000CAF80070CAF80860FFF7C8FB0020C0F600
:10160000E4406860204629462F60AE600226FFF75E
:101610007FFB40F2A800C2F200000078E0B9002091
:101620006027C0F24C40C0F201074FF40026CAF810
:10163000040020465146CAF80070CAF80860FFF757
:10164000A5FB0020C0F628206860204629462F60B0
:10165000AE600226FFF75CFB3220C8F8000000BF36
:10166000D8F800000028FBD16020C0F201002860FB
:101670004FF40020A8600020C0F61C40686020469F
:101680002946FFF745FB0420CAF80090CAF8086015
:10169000C0F61C40CAF8040020465146FFF776FB0E
:1016A00040F2A800C2F20000007810F0180F7FF49A
:1016B00041AD45E570B586B043F200040420012138
:1016C000C4F20104FEF7EAFE2020C1F60200A4F5F0
:1016D000205505AE059028463146FEF7BFFD802017
:1016E000C1F20200059028463146FEF7B7FD4FF4DF
:1016F00080500121FEF7D2FE4FF0827000904FF42F
:10170000003001900120C0F2002002903820C0F289
:101710008000039069462046FEF7C8FF20466021FE
:101720000122FEF7B3FF20460121FEF76BFF44F6CE
:10173000C036C0F2030600BF28468021FEF7F6FD42
:10174000013EF9D120460021FEF7AEFF4EF2041013
:10175000CEF200000821016043F20800C4F201004B
:1017600001880906FCD406B070BD00002DE9F04FD9
:101770008FB0FEF7D1FF40F20000C2F20000006817
:1017800044F6D351C1F26201A0FB01014FF0FF30DA
:1017900000EB91104FF00009B9EB106F0ED14EF233
:1017A0001001CEF2000148604EF62350CEF2000048
:1017B000F02202700720C1F8089008604FF4003052
:1017C0000121FEF753FE042001214FF0040AFEF729
:1017D00065FE42F600440420C4F20104C1F6030091
:1017E000A4F510560EAD0E9030462946FEF736FD94
:1017F0000820ADF83800304629468DF83BA0FEF7AA
:101800002DFD4FF4E130A4F56845CDE90A094FF408
:10181000002B0AA92846CDF830B0ADF83490FFF778
:10182000A9FB28460121FFF77DFB08200121FEF7D7
:1018300035FE40F20040C1F60300A4F5005809AFA0
:10184000099040463946FEF709FD4FF40060ADF8B7
:101850002400404639468DF827A0FEF7FFFC4FF4E0
:1018600080200121FEF702FE4FF41650CDE9050954
:101870004FF44020A4F56445079005A92846ADF82B
:101880002090FFF777FB28460121FFF74BFB0C2048
:101890000121FEF703FE40F20030C1F6020009907C
:1018A00030463946FEF7DAFC46F20000C1F6020087
:1018B000099040463946FEF7D1FC4FF40060012103
:1018C000FEF7ECFD4720029042F20F70039002A950
:1018D00020468DF81090FFF7A5FA20460121FFF76A
:1018E0009BF820460821FFF74BFA20460821FFF716
:1018F00087FA20460121FFF799F840F27001602035
:10190000C2F20001C0F2010008602046C1F808B030
:10191000C1F80490FFF7FCF940F28001C2F2000127
:1019200060200860022088602046C1F804A0FFF70C
:101930002DFAFEF7F9FF0D200121FEF7AFFD08207B
:101940000121FEF7ABFD48F20000C1F20200019058
:1019500001A94046FEF782FC0FB0BDE8F08F0204FB
:101960000608000000000000000001020304060752
:101970000809000000000102030401020304060735
:1019800008090000A4190008000000201000000051
:1019900028010008B419000810000020A806000063
:1019A0004401000800A24A04204E00006400000028
:0419B0000100000032
:040000050800018965
:00000001FF
