:020000040800F2
:10000000C80600208D01000895010008970100082E
:10001000990100089B0100089D01000800000000F4
:100020000000000000000000000000009F01000828
:10003000A101000800000000A3010008A5010008BC
:10004000A7010008A7010008A7010008A7010008F0
:10005000A7010008A7010008A7010008A7010008E0
:10006000A7010008A7010008A7010008A7010008D0
:10007000A7010008A7010008A7010008A7010008C0
:10008000A7010008A7010008A7010008A7010008B0
:10009000A7010008A7010008A7010008A7010008A0
:1000A000A7010008F9050008A70100080D050008D0
:1000B000A7010008A7010008A7010008A701000880
:1000C000A7010008A7010008A70100086D020008A9
:1000D000A7010008A7010008A70100087106000891
:1000E000A7010008A7010008A701000800F002F816
:1000F00000F03CF80AA090E8000C82448344AAF186
:100100000107DA4501D100F031F8AFF2090EBAE883
:100110000F0013F0010F18BFFB1A43F0010318473B
:10012000F40A0000140B0000103A24BF78C878C10C
:10013000FAD8520724BF30C830C144BF04680C60ED
:10014000704700000023002400250026103A28BF35
:1001500078C1FBD8520728BF30C148BF0B60704739
:100160001FB500F037F81FBD10B510BD00F044F802
:100170001146FFF7F5FF00F019FD00F062F803B437
:10018000FFF7F2FF03BC00F06BF80000094880475E
:1001900009480047FEE7FEE7FEE7FEE7FEE7FEE769
:1001A000FEE7FEE7FEE7FEE704480549054A064B81
:1001B00070470000A5040008ED000008C8000020FA
:1001C000C8060020C8020020C802002070477047FF
:1001D0007047000070B5064C7C44064D7D4404E039
:1001E0002046016808448047241DAC42F8D170BD08
:1001F000580A0000580A0000754600F02BF8AE4679
:1002000005006946534620F00700854618B020B522
:10021000FFF7CAFFBDE820404FF000064FF000078F
:100220004FF000084FF0000BAC46ACE8C009ACE85A
:10023000C009ACE8C009ACE8C00921F007018D464F
:10024000704710B50446AFF300802046BDE810406B
:10025000FFF795BF00487047080000207047000076
:1002600001491820ABBEFEE72600020080B582B02F
:1002700043F20400C4F201000088000600282AD5D9
:10028000FFE743F20800C4F201000088800700285D
:1002900020D5FFE740F2B401C2F20001086801383E
:1002A000086038B1FFE743F20C01C4F20101FF20FE
:1002B00008800EE043F20C01C4F201010020088026
:1002C00043F20401C4F20101088820F08000088094
:1002D000FFE7FFE7FFE743F20800C4F201000088F0
:1002E000C007A8B3FFE743F20C00C4F20100008886
:1002F0008DF8070040F2B400C2F200000068032845
:100300000DD1FFE740F61000C4F20100102101609A
:10031000006840F61401C4F201010860FFE743F2EF
:100320000800C4F201000088800700280FD5FFE70D
:100330009DF8070040F27501C2F20001087040F21A
:100340007801C2F20001086801300860FFE7FFE7AA
:1003500043F20000C4F2010000F008F840F2C501C9
:10036000C2F20001087002B080BD000081B00090B0
:100370000098808901B0704780B500F001F880BD19
:1003800084B000200390029041F20001C4F2020107
:10039000086840F480300860FFE741F20000C4F2D2
:1003A0000200006800F400300290039801300390CE
:1003B000FFE702990020019039B9FFE70398B0F5F3
:1003C000A06018BF01200190FFE70198C007002836
:1003D000E3D1FFE741F20000C4F2020000688003AD
:1003E000002803D5FFE70120029002E000200290E0
:1003F000FFE70298012851D1FFE742F20001C4F261
:100400000201086840F010000860086820F007004A
:100410000860086840F00200086041F20401C4F27C
:10042000020100910868086008680860086840F4E4
:1004300080600860086820F47C100860086840F458
:10044000E810086041F20001C4F20201086840F0BF
:1004500080700860FFE741F20000C4F2020000680B
:100460008001002801D4FFE7F5E741F20401C4F25E
:100470000201086820F003000860086840F00200EC
:100480000860FFE741F20400C4F20200006800F0D7
:100490000C00082801D0FFE7F4E700E0FFE704B014
:1004A0007047000080B541F20002C4F202021068F9
:1004B00040F00100106041F20401C4F2020108683A
:1004C0000023CFF6FF031840086010684FF6FF7353
:1004D000CFF6F66318401060106820F4802010609A
:1004E000086820F4FE00086041F20801C4F202012D
:1004F0004FF41F000860FFF73FFF4EF60851CEF2A1
:1005000000014FF00060086080BD000042F610401E
:10051000C4F2010000880007002837D5FFE742F643
:100520000C40C4F201000088000700282ED5FFE728
:1005300040F27C00C2F20000006842F63C41C4F286
:1005400001010A884AF6C87100FB012049F6B11181
:10055000401A40F2B801C2F20001086042F60C41B4
:10056000C4F20101088820F00800088042F620410A
:10057000C4F20101088820F48070088042F61C4112
:10058000C4F2010146F603000880FFE742F610407E
:10059000C4F201000088C00600282CD5FFE742F60F
:1005A0004040C4F20100008842F21071884210DB22
:1005B000FFE740F28000C2F20000006848B9FFE7A0
:1005C00042F62041C4F20101088840F480500880BE
:1005D00008E042F62041C4F20101088820F480506E
:1005E0000880FFE742F61041C4F20101088820F0BC
:1005F00010000880FFE7704780B52420C4F2000097
:10060000008840F2BC01C2F20001086040F62400FC
:10061000C4F20000008840F2C001C2F2000108608C
:1006200040F2B401C2F200010420086040F2000070
:10063000C2F20000007843F20C01C4F2010108800C
:1006400043F20401C4F20101088840F080000880F0
:1006500042F61041C4F20101088820F00100088030
:1006600040F27800C2F20000006800F055F980BD49
:1006700044F60000C4F200000088000600282FD5D0
:10068000FFE740F26800C2F200000068F0B1FFE747
:1006900040F26800C2F200000068007870B1FFE725
:1006A00040F26802C2F200021068411C116000783A
:1006B00044F60401C4F20001088006E040F268013B
:1006C000C2F2000100200860FFE708E044F60C01D8
:1006D000C4F20001088820F080000880FFE7FFE7EF
:1006E0007047000082B001908DF803109DF8030060
:1006F00030B1FFE70199888940F40050888105E016
:100700000199888920F400508881FFE702B0704782
:1007100080B500F01FFA00F025FA00F02BFA00F087
:1007200037FA80BD40F2B800C2F20000016848F21A
:100730003910C3F61300A1FB0020091A00EB510089
:100740008009704780B584B041F21C01C4F20201F7
:100750000520C0F20600086041F21801C4F202014F
:1007600041F60C20086040F60001C4F2010144F695
:100770004220CAF2A240086040F60401C4F201011E
:100780004AF2AA40C4F24440086040F60041C4F274
:10079000010144F24040C4F24420086040F60441A4
:1007A000C4F2010144F64420CAF6A220086042F6D1
:1007B0000C41C4F201011120088042F62841C4F224
:1007C00001010320088042F62C41C4F201014AF6DF
:1007D000C770088042F61841C4F2010146F668006D
:1007E000088042F61C41C4F2010146F6030008806D
:1007F00042F64441C4F201014FF40040088042F641
:100800002041C4F201014FF40070088042F64041DB
:10081000C4F2010141F28830088043F20401C4F2BD
:1008200001014020088043F20001C4F2010101915E
:1008300040F2BF30088044F60800C4F200004FF4D4
:100840009C710180008844F20841C4F200010880D4
:1008500044F20C41C4F2000102912C20088044F6BD
:100860000C01C4F2000103910C20088042F21041F7
:10087000C4F201014FF0E060086042F23441C4F27A
:1008800001010820086040F60800C4F2000067215A
:10089000018000880821C4F2000108801821C4F2F8
:1008A00000014FF48070088008880880192000F04B
:1008B00015F91B2000F012F9232000F00FF9262073
:1008C00000F00CF9272000F009F9019B029A039926
:1008D000188840F040001880108840F400501080C4
:1008E000088840F40050088040F60000C4F2000080
:1008F0000121018000884FF08042108042F60040C4
:10090000C4F20100018044F20040C4F20000FFF78D
:10091000E9FE04B080BD000081B0009040F27C018F
:10092000C2F2000108680130086042F61C40C4F2BF
:100930000100008846F67001884233D1FFE740F29B
:100940007C01C2F200010020086042F62041C4F29E
:100950000101088820F48060088042F61C42C4F23D
:10096000010246F601001080088840F4807008807B
:1009700042F61041C4F20101088820F00800088006
:1009800040F27400C2F200000078C00748B9FFE7E7
:1009900042F60C41C4F20101088840F008000880CA
:1009A000FFE7FFE7009800F0070040F28001C2F285
:1009B00000010860A0BBFFE742F61C40C4F2010042
:1009C000008846F60101884207D1FFE740F2B801EE
:1009D000C2F2000100200860FFE742F60C41C4F2B9
:1009E0000101088820F00800088042F62041C4F286
:1009F0000101088820F48070088042F63C42C4F26D
:100A000001024AF61470108042F61C42C4F2010240
:100A100046F670001080088840F480600880FFE788
:100A200001B0704781B08DF8030042F62041C4F256
:100A30000101088820F0050008809DF80300C00728
:100A400048B1FFE742F62041C4F20101088840F0B6
:100A50000100088008E042F62041C4F20101088844
:100A600040F004000880FFE701B0704781B00090BB
:100A7000009842F63441C4F20101088001B0704789
:100A800081B08DF8030042F62041C4F201010888CC
:100A900020F0500008809DF80300C00748B1FFE730
:100AA00042F62041C4F20101088840F0400008806D
:100AB00008E042F62041C4F20101088840F010002D
:100AC0000880FFE701B0704781B00090009842F6BF
:100AD0003841C4F20101088001B0704781B08DF83F
:100AE00003009DF9030000280ED4FFE79DF90310D1
:100AF00001F01F02012090404A094EF20011CEF28F
:100B0000000141F82200FFE701B0704781B000907A
:100B1000009900200861C86001B0704780B586B0B8
:100B20000590049103920293059801900499016045
:100B30000399416002998160FFF7E8FF019806B0D0
:100B400080BD000081B000900098002101604160EC
:100B500001B0704780B540F26C00C2F20000FFF7B0
:100B6000F1FF80BD80B540F28400C2F20000FFF7C3
:100B7000E9FF80BD80B540F28C00C2F2000045F272
:100B8000497164224FF47A73FFF7C8FF80BD0000FB
:100B900080B540F2A000C2F2000043F23901C82241
:100BA0004FF47A73FFF7BAFF80BD000080B586B0BE
:100BB00000200590FFF7C6FDFFE7FFF7B3FD0146F4
:100BC00040F2C400C2F200000170007869280FDC16
:100BD000FFE700200390FFF749FF0398FFF774FF3A
:100BE00001200490FFF71EFF0498FFF749FF0FE074
:100BF00042F6E0600190FFF739FF0198FFF764FFCC
:100C000001200290FFF70EFF0298FFF739FFFFE780
:100C1000D3E70000380C00080000002004000000AA
:100C2000280100083C0C000808000020C006000055
:0C0C300044010008DDFAFFFF8000000016
:040000050800018D61
:00000001FF
