:020000040800F2
:10000000B80600208901000891010008930100084A
:100010009501000897010008990100080000000000
:100020000000000000000000000000009B0100082C
:100030009D010008000000009F010008F50600086F
:10004000A3010008A3010008A3010008A301000800
:10005000A3010008A3010008A3010008A3010008F0
:10006000A3010008A3010008A3010008A3010008E0
:10007000A3010008A3010008A3010008A3010008D0
:10008000A3010008A3010008A3010008A3010008C0
:10009000A3010008A3010008A3010008A3010008B0
:1000A000A3010008A3010008A301000899080008A3
:1000B000B5090008A3010008E1090008A301000830
:1000C000A3010008A3010008A30100086D050008B2
:1000D000A3010008A3010008A3010008D10E000835
:1000E000A3010008A3010008A301000800F002F822
:1000F00000F03AF80AA090E8000C82448344AAF188
:100100000107DA4501D100F02FF8AFF2090EBAE885
:100110000F0013F0010F18BFFB1A43F0010318473B
:100120004C1A00006C1A0000103A24BF78C878C13D
:10013000FAD8520724BF30C830C144BF04680C60ED
:10014000704700000023002400250026103A28BF35
:1001500078C1FBD8520728BF30C148BF0B60704739
:100160001FB51FBD10B510BD00F031F81146FFF7E7
:10017000F7FF00F0B7FF00F04FF803B4FFF7F2FF0E
:1001800003BC00F057F800000948804709480047C1
:10019000FEE7FEE7FEE7FEE7FEE7FEE7FEE7FEE737
:1001A000FEE7FEE704480549054A064B7047000094
:1001B00089070008ED000008B8000020B8060020FC
:1001C000B8020020B802002070477047704775469B
:1001D00000F02CF8AE4605006946534620F00700B3
:1001E000854618B020B5FFF7DDFFBDE820404FF091
:1001F00000064FF000074FF000084FF0000BAC4630
:10020000ACE8C009ACE8C009ACE8C009ACE8C0097A
:1002100021F007018D46704710B50446AFF300800A
:100220002046BDE81040FFF7A8BF00000048704717
:100230001800002001491820ABBEFEE7260002008E
:100240007047000080B50120012100F033F9012042
:100250000021BDE8804000F02DB900002DE9F047F5
:10026000CA7802F00F0CD30644BF8B784CEA030C1B
:1002700009880B0625D082465AF8144B00F1100E5F
:1002800000254FF001094FF00F08002706E000BFDE
:100290001E600137082F05F1040511D009FA07F691
:1002A0000E42F6D008FA05F324EA03030CFA05F42B
:1002B0001C43282A5346EBD0482AEAD17346E7E785
:1002C0000460B1F5807F38BFBDE8F087436800F176
:1002D000100E00F1140900254FF4807A4FF00F083A
:1002E000002705E034600137082F05F1040512D01E
:1002F0000AFA07F404EA0106A642F4D108FA05F660
:10030000B3430CFA05F63343282A4E46EAD0482A6E
:10031000E9D17646E6E74360BDE8F087C06808406B
:1003200018BF0120704700004161704701617047AC
:100330001023002A08BF1423C1507047F0B587B0BE
:1003400043F200040646C4F20104FFF77BFF41F2CA
:100350000500012100F0A2F82020C1F60200A4F55A
:10036000205501AF019028463946FFF777FF8020DE
:10037000C1F60200019028463946FFF76FFF402082
:10038000C0F20240019028463946FFF767FF10206F
:10039000C1F20200019028463946FFF75FFF204670
:1003A00000F03AF94FF0827002904FF40030039061
:1003B0000120C0F2002004903820059002A92046B8
:1003C00000F074F92046012100F01CF920460221BA
:1003D00000F056F90028F9D02046314600F064F9C3
:1003E0002046012100F04CF90028F9D028461021C0
:1003F0000122FFF79DFF284610210022FFF798FFFA
:100400002046002100F0FEF807B0F0BD10B5C1781D
:1004100000294EF20011CEF200011AD04EF60C5215
:10042000CEF200021268072323EA12220F23C2F140
:10043000040C23FA02F24378847890F800E003FA7F
:100440000CF322401A43120101EB0E0383F8002340
:1004500000E080310078012300F01F0203FA02F26D
:10046000C0F3421041F8202010BD0000002941F2E5
:100470001C01C4F202010A680CBF22EA000010430A
:1004800008607047002941F21001C4F202010A68B5
:100490000CBF22EA0000104308607047002941F2B7
:1004A0001801C4F202010A680CBF22EA00001043DE
:1004B00008607047002941F20C01C4F202010A6889
:1004C0000CBF22EA000010430860704710B541F2EB
:1004D0000404C4F20204226802F00C02082A41F269
:1004E0000022C0F27A021CD12368D4F800C0C3F302
:1004F000834E5FEACC330EF1020C06D440F60012B4
:10050000C0F23D020CFB02F20BE023689B0302D415
:100510000CFB02F205E040F60012C0F23D020CFBBB
:1005200002F20260226841F65A33C2F30312C0F6A7
:1005300000039A5C0168D14041602268C2F3022244
:100540009A5C21FA02F282602268C2F3C2229A5CAB
:1005500041F64633D140C1602268C0F60003C2F3C1
:1005600081329A5CB1FBF2F1016110BD70B543F2CA
:100570000800C4F2010000BF01880906FCD443F260
:100580000004C4F20104204600F08CF840F2980602
:10059000C2F20006A4F52055307028468021FFF7EE
:1005A000BDFE012809D128468021FFF7BDFE204667
:1005B0000021BDE8704000F077B8A4F56C4500BF9D
:1005C0002846402100F0B8FC0028F9D031782846B0
:1005D00000F030FD307840F2AC01C2F2000108704A
:1005E0004EF28410CEF2000008210160BFF34F8F5D
:1005F000204660210022BFF36F8FBDE8704000F0FD
:1006000045B800000288002918BF012122F04002ED
:1006100042EA81110180704780B543F60001C4F2BF
:100620000001884218D043F60041C4F2000188421C
:100630001AD043F20001C4F20101884218BF80BD04
:100640004FF480500121FFF735FF4FF48050002117
:10065000BDE88040FFF72EBF4FF480400121FFF737
:1006600011FF4FF4804006E04FF400400121FFF7F6
:1006700009FF4FF400400021BDE88040FFF702BFB2
:100680000089084018BF01207047000009090123B4
:1006900003FA01F1002A82880CBF22EA010111430A
:1006A0008180704780897047818170472DE9F041D2
:1006B00002880B8802F4415C4A88B1F804E043EAFE
:1006C0000C03CC881A430D8942EA0E024E8922435C
:1006D0008F892A43B1F80E8032433A4342EA080236
:1006E0000280828B22F400628283098A0182BDE843
:1006F000F081000040F2A000C2F20000016811B1D8
:1007000001680139016040F20800C2F2000001688E
:10071000013101607047000041F20400C4F20200A0
:10072000016801F00C01082941F20021C0F27A01B0
:1007300017D102680368C2F38342DB0302F10202AD
:1007400005D440F60011C0F23D01514309E00368B1
:100750009B0301D4514304E040F60011C0F23D0177
:10076000514340F20002C2F200021160006841F6FB
:100770004A31C0F30310C0F60001085C116821FA89
:1007800000F010607047000082B041F20400C4F233
:10079000020050F8041C002241F0010140F8041C42
:1007A0000168CFF6FF021140016050F8041C4FF6BB
:1007B000FF72CFF6F662114040F8041C50F8041C9A
:1007C00021F4802140F8041C016821F4FE0101603D
:1007D0004FF41F01416000210191009150F8041C69
:1007E00041F4803140F8041C50F8041C01F400313D
:1007F0000091019901310191009919B90199B1F55F
:10080000A06FF1D150F8041C890354BF00210121CD
:1008100000910099012936D142F20001C4F202018F
:100820000A6842F010020A600A6822F007020A60B1
:100830000A6842F002020A60016801600168016012
:10084000016841F480610160016821F47C1101605C
:10085000016841F4E811016050F8041C41F0807116
:1008600040F8041C50F8041C8901FBD5016821F0F4
:1008700003010160016841F002010160016801F0BB
:100880000C010829FAD14EF60850CEF200004FF0C4
:100890000061016002B07047F0B581B042F60044DB
:1008A000C4F201042046082100F0CEF8A0B340F2C3
:1008B000A405C2F20005287820B3204600F0C2F853
:1008C00040F2A806C2F200063168002708443060F2
:1008D000306840F29C01C2F200010860086848F6E6
:1008E0008901C8F68801A0FB0101480940F20C010A
:1008F000C2F2000108602046002100F089FA2F7042
:10090000376009E0012028702046002100F088FAB5
:100910002046022100F07CFA2046092101B0BDE802
:10092000F04000F075B8000070B588B004200121D7
:100930000125FFF7B3FD01200121FFF7AFFD40F2D4
:10094000004042F60044C2F60300C4F201040790DE
:10095000A4F5105007A9FFF781FC4FF400600121B6
:10096000FFF79CFD4720049042F20F70059000268F
:1009700004A920468DF8186000F054FA20460121A1
:1009800000F04AF80820CDE9010501A92046ADF89C
:100990000C6000F065F840F21B20C0F200100090DF
:1009A0006846FFF733FD20460921012200F0A8F92F
:1009B00008B070BD80B54FF08040042100F044F8CD
:1009C000002808BF80BD4FF08040042100F020F8CF
:1009D00040F2B000C2F2000001680131016080BD48
:1009E00010B540F60004C4F200042046042100F0D3
:1009F0002BF8002808BF10BD2046042100F008F89D
:100A000040F2B400C2F2000001680131016010BD83
:100A1000C9430182704700000288002918BF0121E4
:100A200022F001021144018070470000B0F8442018
:100A3000002918BF01216FF3DF3242EAC131A0F86B
:100A400044107047808C7047028A80890A4000EA0F
:100A5000010018BF0122002818BF01201040704774
:100A6000F0B50A88082A29D0042A52D0002A7BD15E
:100A70004B88B1F804C0B1F808E0028C40F6FF36AC
:100A800022F001020284024632F8184F058CC4F2AB
:100A90000006B0424FF6FC7600F38F80B0F1804F35
:100AA00000F09E8040F20047C4F20007B84200F018
:100AB000978040F60007C4F200078EE04B88B1F83B
:100AC00004C0B1F808E0028C40F6FF3722F48072CF
:100AD0000284024632F81C4F058C6FF44056C4F273
:100AE0000007B84206F5145600F38B80B0F1804F32
:100AF00000F0998040F20047C4F20007B84200F0CD
:100B0000928040F60007C4F20007B84200F08B80E4
:100B10008EE04B88B1F804C0B1F808E0028C40F6D2
:100B2000FF3722F010020284024632F8184F058C7B
:100B30006FF00306C4F20007B842A6F1AD0600F359
:100B40008880B0F1804F00F0968040F20047C4F2F8
:100B50000007B84200F08F8040F60007C4F200079B
:100B6000B84200F088808AE04B88B1F804C0B1F840
:100B700008E0028C40F6FF3622F4805202840246DE
:100B800032F81C4F058CC4F20006B04246F6FF5600
:100B900000F38980B0F1804F00F0978040F2004769
:100BA000C4F20007B84200F0908040F60007C4F29B
:100BB0000007B84200F089808AE040F60047C4F29E
:100BC0000007B8420CD042F60047C4F20107B84211
:100BD00006D043F20047C4F20107B84218BF083EEE
:100BE00035402B4324F0F3044CEA0E1743F0010385
:100BF000274307830384C988038B23F00C030383F3
:100C00007AE040F60047C4F20007B8420BD043F246
:100C10000047C4F20107B84205D042F60047C4F2CB
:100C20000107B84204D14CF6FF761B0206F5345694
:100C300035402B4324F0F3044CEA0E1743F4807341
:100C4000274387830384C988838B23F00C03838322
:100C500052E040F60047C4F20007B8420BD043F21E
:100C60000047C4F20107B84205D042F60047C4F27B
:100C70000107B84203D14FF6FC761B012D3E3540EB
:100C80002B4340F6FF452C4044EA0E3743F0100357
:100C900047EA0C2707830384C988038B090223F4DE
:100CA0004063038328E040F60047C4F20007B842DF
:100CB0000BD043F20047C4F20107B84205D042F618
:100CC0000047C4F20107B84202D14CF6FF761B037D
:100CD00035402B4340F6FF454FEA0E372C4047EA9C
:100CE0000C2743F48053274387830384C988838B6D
:100CF000090223F440638383108808431080F0BD09
:100D0000002A82890CBF22EA0101114381817047C8
:100D1000B0B5028C22F001020284038C8288B0F804
:100D200018C00C8923F002032343A0F180444D88AE
:100D3000A4F59634B1F800E04FEAB424072C43EA56
:100D4000050313D8012505FA04F414F0E50F0DD0BE
:100D50004C8923F00C0324F004048D8823438C89F0
:100D60002B4322F44072CD8922432A432CF0730591
:100D700045EA0E0582800583C98881860384B0BD5B
:100D8000028B22F00802114301837047B0B5028C38
:100D900022F010020284038C8288B0F818E00C89DB
:100DA0004D88B1F800C02C4343F2004523F02003E6
:100DB000C4F20105A84243EA041305D042F60044F8
:100DC000C4F20104A04211D14C896FF0400523F018
:100DD000C00305EA04148D88234343EA05138C8974
:100DE000CD8922F440622C4342EA84022EF4E64587
:100DF00045EA0C2582800583C98801870384B0BD3C
:100E0000028B22F4006242EA012101837047000054
:100E1000028C22F4007242EA012101847047000032
:100E20008184704740F6FF33B0F800C0C4F200037D
:100E300098420FDCB0F1804F1ED040F20043C4F264
:100E40000003984218D040F60003C4F20003984211
:100E500012D016E040F60043C4F2000398420BD0D3
:100E600043F20043C4F20103984205D042F6004326
:100E7000C4F20103984204D14B882CF0700243EA7B
:100E8000020C41F2004240F48063C4F2000293423B
:100E900004D0CA882CF4407342EA030CA0F800C0C6
:100EA0008A888285A0F18042A2F596320B884FEAAB
:100EB000B222072A038507D8012303FA02F212F0AF
:100EC000E50F1CBF097A018601218182704700006D
:100ED00010B544F60004C4F20004204640F2266136
:100EE00000F030F820B1204640F2266100F012F800
:100EF000204640F2255100F025F8002808BF10BD1B
:100F0000204600F093F8C1B22046BDE8104000F042
:100F100091B80000090A012202FA01F1C9430180D7
:100F2000704700008289002918BF012122F4005275
:100F300042EA4131818170470088084018BF012092
:100F400070470000C1F34212022A06D0012A14BFE2
:100F500000F1140200F10C0201E000F1100212880D
:100F6000008801F01F03090ADA40C840104000F071
:100F70000100704770B586B00446008A0D46C988E6
:100F800020F4405008432082A0894EF6F311084017
:100F9000A9882A896B89084310431843A081A08A35
:100FA000A98920F44070084301AEA0823046FFF7C3
:100FB0008DFA43F6000106F10800C4F201018C42EB
:100FC00008BF06F10C0000681922B4F90C10504358
:100FD0002A680123B1F1FF3FC8BF022302FA03F1DF
:100FE000B0FBF1F048F21F51C5F2EB11A0FB012359
:100FF0005A096FF0630302FB0300B4F90C300326B7
:10100000B3F1FF3FC8BF042600FA06F000F132003A
:10101000A0FB01014FF00700C8BF0F2000EA5110EC
:1010200040EA0210208106B070BD000080886FF396
:101030005F2070476FF35F2181807047F0B587B004
:10104000052001210126FFF711FA4720ADF8100015
:101050000020CFF6FF7004AD0027CDF812004FF04E
:1010600080402946ADF81670FFF7DCFE40F600041C
:10107000C4F2000420462946FFF7D4FE042001AD47
:10108000CDE901064FF080402946ADF80C70FFF71E
:10109000E7FC20462946FFF7E3FC4FF0804004219F
:1010A0000122FFF72DFE204604210122FFF728FE32
:1010B0001C20C0F200106D4600902846FFF7A6F9EC
:1010C0001E208DF800002846FFF7A0F94FF0804061
:1010D0000121FFF7A1FC20460121FFF79DFC07B08D
:1010E000F0BD000000F036FCFFF7A8FF40F2B000B2
:1010F000C2F200000021016040F2B400C2F2000020
:1011000040F2040640F2AC0540F2780940F2A00437
:101110000160C2F200060120C2F20005C2F200091D
:10112000C2F200044FF0020B307005E0012040F2E3
:101130001001C2F20001087000F0B0FB2878FFF740
:10114000FDF8307802283FD800F09580012840F063
:101150008D8142F60040C4F20100A0F500573846E8
:101160004FF40041FFF7E0F80A20206020680028D3
:10117000FCD138464FF40041FFF7D8F841F28830EF
:10118000206000BF20680028FCD119E038464FF4E9
:101190000041FFF7C9F80A20206000BF206800283E
:1011A000FCD138464FF40041FFF7C0F840F20C0084
:1011B000C2F200000068222802D830780130307076
:1011C00030780128E2D051E12978FF2916D001F0CA
:1011D0001F021F2A12D04AB2B2F1FF3F00F346812C
:1011E00011F0400218BF11F0200200F03F8111F011
:1011F000100218BF11F0080100F0388140F2080118
:10120000C2F200010968B1F5166F07DD013040F246
:10121000080130700020C2F2000108603078042814
:1012200000F09680032840F0F4806020C0F20100B6
:10123000C9F800004FF40020C9F80800002042F669
:101240000047C0F6B830C4F20107C9F804003846B8
:101250004946FFF75DFD40F28801C2F200016020BF
:1012600008600420C0F6B83048603846C1F808B0BD
:10127000FFF78CFDFAE0002042F6004A6027C1F239
:101280008830C4F2010AC0F201074FF40028C9F8FF
:10129000040050464946C9F80070C9F80880FFF7B5
:1012A00037FD40F28801C2F200014FF096704860AD
:1012B00050460F60C1F80880FFF768FD4FF4AF702B
:1012C000206000BF20680028FCD13DE000F0E6FA75
:1012D0002878FFF733F842F6004B602740F2000809
:1012E000C4F2010BC0F201074FF4002AC1F29418B6
:1012F00058464946C9F80070C9F808A0C9F80480E2
:10130000FFF706FD40F28801C2F2000158460F6067
:10131000C1F808A0C1F804804FF0020BFFF736FDBA
:1013200095F90000B0F1FF3F0EDC307840F210017B
:10133000C2F2000181F800B0013040F208013070C3
:101340000020C2F20001086030780228BED08DE093
:10135000042042F60047C0F2DC00C4F201074FF05F
:101360006008C9F8040038464946C9F80080C9F841
:1013700008B0FFF7CDFC40F288010420C2F2000162
:10138000C0F6A07048603846C1F80080C1F808B0C7
:10139000FFF7FCFC4FF4C870206000BF20680028F5
:1013A000FCD132E000F07AFA2878FEF7C7FF42F667
:1013B000004740F2040AC4F201074FF06008C1F28E
:1013C000680A38464946C9F80080C9F808B0C9F823
:1013D00004A0FFF79DFC40F28801C2F200013846EC
:1013E000C1F80080C1F808B0C1F804A0FFF7CEFC36
:1013F000287810F0090F08D0307840F21001C2F2BE
:101400000001032201300A70307030780428C9D0FE
:101410002CE0072880F0F48140F28801C2F200013C
:1014200060200860042042F60047C0F2D070C4F289
:10143000010748603846C1F808B0FFF7A7FC6020F4
:10144000C0F20100C9F800004FF40020C9F80800FC
:101450004FF0FA60C9F8040038464946FFF758FCD7
:1014600040F210010120C2F20001087040F21000A9
:10147000C2F200000078022834D0012840F0F68043
:101480006020C0F20100C9F800004FF40020C9F844
:101490000800002042F60047C0F6E440C4F201070D
:1014A000C9F8040038464946FFF732FC40F288018B
:1014B000C2F20001602008600420C0F6E4404860E9
:1014C0003846C1F808B0FFF761FC287810F07E0FAD
:1014D0003FF432AE10F0700F4FF0030008BF02204F
:1014E00025E600BF40F28801C2F2000160200860DA
:1014F000042042F60047C0F62820C4F201074860E5
:101500003846C1F808B0FFF741FC6020C0F2010086
:10151000C9F800004FF40020C9F808000020C0F20C
:10152000DC50C9F8040038464946FFF7F1FB28783B
:10153000800723D540F28801C2F2000160200860D4
:10154000042042F60047C0F64850C4F20107486044
:101550003846C1F808B0FFF719FC6020C0F201005E
:10156000C9F800004FF40020C9F808004FF4C80083
:10157000C9F8040038464946FFF7CAFB2878C00777
:1015800021D040F28801042042F60047C2F2000157
:10159000C1F2CC00C4F201074FF060084860384641
:1015A000C1F80080C1F808B0FFF7F0FB0420C0F2DA
:1015B0002C10C9F8040038464946C9F80080C9F81B
:1015C00008B0FFF7A5FB287800BB42F6004740F2C1
:1015D000880140F2040AC4F20107C2F200014FF090
:1015E0006008C1F27C5A3846C1F80080C1F808B0E2
:1015F000C1F804A0FFF7CAFB38464946C9F8008085
:10160000C9F808B0C9F804A0FFF782FB3C202060AD
:1016100020680028FCD16020C0F20100C9F8000059
:101620004FF4002042F60047C9F808004FF02F6041
:10163000C4F20107C9F8040038464946FFF768FBC1
:1016400040F28801C2F20001602008600420C0F668
:10165000F02048603846C1F808B0FFF797FB2878BB
:1016600010F0180F7FF462AD66E500BF40F288010C
:10167000C2F2000160200860042042F60047C0F674
:101680002820C4F2010748603846C1F808B0FFF7C7
:101690007DFB6020C0F20100C9F800004FF400207B
:1016A000C9F808000020C0F2DC50C9F80400384630
:1016B0004946FFF72DFB2878400623D540F28801E4
:1016C000C2F2000160200860042042F60047C0F624
:1016D0004850C4F2010748603846C1F808B0FFF727
:1016E00055FB6020C0F20100C9F800004FF4002053
:1016F000C9F808004FF4C800C9F804003846494644
:10170000FFF706FB95F90000B0F1FF3F22DC40F245
:101710008801002042F6004A6027C2F20001C1F2AF
:10172000CC00C4F2010AC0F201074FF4002848605F
:1017300050460F60C1F80880FFF728FB4FF0967005
:10174000C9F8040050464946C9F80070C9F8088035
:10175000FFF7DEFA287818BB40F2880142F6004A0B
:101760006027C2F200014FF4002040F20008C4F2EA
:10177000010AC0F201078860C1F27C5850460F6030
:10178000C1F80480FFF702FB4FF40020C9F80800FD
:1017900050464946C9F80070C9F80480FFF7B8FA06
:1017A0003C20206020680028FCD16020C0F20100AD
:1017B000C9F800004FF40020C9F80800002042F6E4
:1017C0000047C0F6B830C4F20107C9F80400384633
:1017D0004946FFF79DFA40F28801C2F200016020FD
:1017E00008600420C0F6B83048603846C1F808B038
:1017F000FFF7CCFA287810F01E0F7FF497AC9BE42B
:101800006020C0F20100C9F800004FF4002042F649
:101810000045C9F808004FF0C860C4F20105C9F8D6
:10182000040028464946FFF773FA40F28801602019
:10183000C2F200010860022088600420C0F240600B
:1018400048602846FFF7A2FA4FF42F70206000BFCF
:1018500020680028FCD16020C0F20100C9F8000017
:101860004FF4002042F60044C9F808000020C4F2FA
:101870000104C9F8040020464946FFF749FA40F23E
:1018800088016020C2F20001086002208860042004
:1018900048602046FFF77AFAFEE7000070B586B090
:1018A00043F2000404200121C4F20104FEF7F6FD16
:1018B0002020C1F60200A4F5205505AE059028466B
:1018C0003146FEF7CBFC8020C1F20200059028468D
:1018D0003146FEF7C3FC4FF480500121FEF7DEFDD8
:1018E0004FF0827000904FF4003001900120C0F260
:1018F000002002903820C0F2800003906946204604
:10190000FEF7D4FE204660210122FEF7BFFE2046EE
:101910000121FEF777FE44F6C036C0F2030600BF91
:1019200028468021FEF702FD013EF9D12046002124
:10193000FEF7BAFE4EF20410CEF20000082101605C
:1019400043F20800C4F2010001880906FCD406B085
:1019500070BD00002DE9F04F8FB0FEF7DDFE40F2C4
:101960000000C2F20000006844F6D351C1F26201E7
:10197000A0FB01014FF0FF3000EB91104FF0000988
:10198000B9EB106F0ED14EF21001CEF2000148609B
:101990004EF62350CEF20000F02202700720C1F86C
:1019A000089008604FF400300121FEF75FFD04202D
:1019B00001214FF0040AFEF771FD42F600440420B5
:1019C000C4F20104C1F60300A4F510560EAD0E904A
:1019D00030462946FEF742FC0820ADF83800304674
:1019E00029468DF83BA0FEF739FC4FF4E130A4F511
:1019F0006845CDE90A094FF4002B0AA92846CDF81D
:101A000030B0ADF83490FFF7B5FA28460121FFF762
:101A100089FA08200121FEF741FD40F20040C1F69D
:101A20000300A4F5005809AF099040463946FEF777
:101A300015FC4FF40060ADF82400404639468DF89F
:101A400027A0FEF70BFC4FF480200121FEF70EFDCE
:101A50004FF41650CDE905094FF44020A4F5644534
:101A6000079005A92846ADF82090FFF783FA28468D
:101A70000121FFF757FA0C200121FEF70FFD40F27C
:101A80000030C1F60200099030463946FEF7E6FB09
:101A900046F20000C1F60200099040463946FEF7C2
:101AA000DDFB4FF400600121FEF7F8FC47200290B7
:101AB00042F20F70039002A920468DF81090FFF7B4
:101AC000B1F920460121FEF7A7FF20460821FFF7C4
:101AD00057F920460821FFF793F920460121FEF728
:101AE000A5FF40F278016020C2F20001C0F20100BF
:101AF00008602046C1F808B0C1F80490FFF708F963
:101B000040F28801C2F20001602008600220886073
:101B10002046C1F804A0FFF739F9FEF705FF0D20B4
:101B20000121FEF7BBFC08200121FEF7B7FC48F2BB
:101B30000000C1F20200019001A94046FEF78EFBB1
:101B40000FB0BDE8F08F020406080000000000009E
:101B5000000001020304060708090000000001025A
:101B60000304010203040607080900008C1B000897
:101B7000000000201400000028010008A01B00083D
:101B800018000020A00600004401000800A24A043A
:101B900001000000204E0000640000000100000071
:040000050800018965
:00000001FF
