:020000040800F2
:10000000A006002089010008910100089301000862
:100010009501000897010008990100080000000000
:100020000000000000000000000000009B0100082C
:100030009D010008000000009F0100081D08000845
:10004000A3010008A3010008A3010008A301000800
:10005000A3010008A3010008A3010008A3010008F0
:10006000A3010008A3010008A3010008A3010008E0
:10007000A3010008A3010008A3010008A3010008D0
:10008000A3010008A3010008A3010008A3010008C0
:10009000A3010008A3010008A3010008A3010008B0
:1000A000A3010008A3010008A3010008A3010008A0
:1000B000A3010008A3010008A3010008A301000890
:1000C000A3010008A3010008A3010008E903000838
:1000D000A3010008A3010008A3010008A301000870
:1000E000A3010008A3010008A301000800F002F822
:1000F00000F03AF80AA090E8000C82448344AAF188
:100100000107DA4501D100F02FF8AFF2090EBAE885
:100110000F0013F0010F18BFFB1A43F0010318473B
:10012000901E0000B01E0000103A24BF78C878C1AD
:10013000FAD8520724BF30C830C144BF04680C60ED
:10014000704700000023002400250026103A28BF35
:1001500078C1FBD8520728BF30C148BF0B60704739
:100160001FB51FBD10B510BD00F031F81146FFF7E7
:10017000F7FF00F07BFD00F04FF803B4FFF7F2FF4C
:1001800003BC00F057F800000948804709480047C1
:10019000FEE7FEE7FEE7FEE7FEE7FEE7FEE7FEE737
:1001A000FEE7FEE704480549054A064B7047000094
:1001B000A5080008ED000008A0000020A00600200F
:1001C000A0020020A00200207047704770477546CB
:1001D00000F02CF8AE4605006946534620F00700B3
:1001E000854618B020B5FFF7DDFFBDE820404FF091
:1001F00000064FF000074FF000084FF0000BAC4630
:10020000ACE8C009ACE8C009ACE8C009ACE8C0097A
:1002100021F007018D46704710B50446AFF300800A
:100220002046BDE81040FFF7A8BF00000048704717
:100230000800002001491820ABBEFEE7260002009E
:10024000704700002DE9F047CA7802F00F0CD30682
:1002500044BF8B784CEA030C09880B0625D08246F4
:100260005AF8144B00F1100E00254FF001094FF021
:100270000F08002706E000BF1E600137082F05F1B8
:10028000040511D009FA07F60E42F6D008FA05F374
:1002900024EA03030CFA05F41C43282A5346EBD046
:1002A000482AEAD17346E7E70460B1F5807F38BF9A
:1002B000BDE8F087436800F1100E00F11409002535
:1002C0004FF4807A4FF00F08002705E034600137C3
:1002D000082F05F1040512D00AFA07F404EA010612
:1002E000A642F4D108FA05F6B3430CFA05F63343F7
:1002F000282A4E46EAD0482AE9D17646E6E7436006
:10030000BDE8F087C068084018BF012070470000B2
:100310004161704701617047002941F21C01C4F23C
:1003200002010A680CBF22EA00001043086070470F
:10033000002941F21801C4F202010A680CBF22EA46
:10034000000010430860704710B541F20404C4F285
:100350000204226802F00C02082A41F20022C0F2D4
:100360007A021CD12368D4F800C0C3F3834E5FEA3D
:10037000CC330EF1020C06D440F60012C0F23D025E
:100380000CFB02F20BE023689B0302D40CFB02F28D
:1003900005E040F60012C0F23D020CFB02F20260E2
:1003A000226841F69E73C2F30312C0F600039A5C02
:1003B0000168D14041602268C2F302229A5C21FAAE
:1003C00002F282602268C2F3C2229A5C41F68A730A
:1003D000D140C1602268C0F60003C2F381329A5C4A
:1003E000B1FBF2F1016110BDF0B581B044F600043B
:1003F000C4F2000404F56845284600F045F940F2CF
:100400006807C2F2000704F5404638703046802184
:10041000FFF778FF01280AD130468021FFF778FFE7
:100420002846002101B0BDE8F04000F02FB938782F
:1004300040F27C05C2F200050021C00729600FD1FF
:100440002046402100F0ACFB0028F9D020463121A5
:1004500000F008FC286840F0010028600AE000BFB6
:100460002046402100F09CFB0028F9D02046302196
:1004700000F0F8FB3878800710D400BF20464021F8
:1004800000F08EFB0028F9D02046312100F0EAFB75
:10049000286840F0020028600AE000BF20464021A2
:1004A00000F07EFB0028F9D02046302100F0DAFB76
:1004B0003878400710D400BF2046402100F070FB80
:1004C0000028F9D02046312100F0CCFB286840F00C
:1004D000040028600AE000BF2046402100F060FBD5
:1004E0000028F9D02046302100F0BCFB3878000706
:1004F00010D400BF2046402100F052FB0028F9D064
:100500002046312100F0AEFB286840F0080028604A
:100510000AE000BF2046402100F042FB0028F9D04D
:100520002046302100F09EFB3878C00610D400BF72
:100530002046402100F034FB0028F9D0204631212C
:1005400000F090FB286840F0100028600AE000BF2F
:100550002046402100F024FB0028F9D0204630211D
:1005600000F080FB3878800610D400BF2046402180
:1005700000F016FB0028F9D02046312100F072FB74
:10058000286840F0200028600AE000BF2046402193
:1005900000F006FB0028F9D02046302100F062FB75
:1005A0003878400610D400BF2046402100F0F8FA09
:1005B0000028F9D02046312100F054FB286840F093
:1005C000400028600AE000BF2046402100F0E8FA21
:1005D0000028F9D02046302100F044FB97F90000B4
:1005E000B0F1FF3F10DD00BF2046402100F0D8FAF7
:1005F0000028F9D02046312100F034FB286840F073
:10060000800028600AE000BF2046402100F0C8FAC0
:100610000028F9D02046302100F024FB204640215C
:1006200000F0BEFA0028F9D020460D2100F01AFB98
:100630002046402100F0B4FA0028F9D020460A21D3
:1006400000F010FB4EF28410CEF200000821016091
:10065000BFF34F8FBFF36F8F01B0F0BD0288002949
:1006600018BF012122F0400242EA81110180704747
:100670000909012303FA01F1002A82880CBF22EA4A
:1006800001011143818070478089704781817047E3
:100690002DE9F04102880B8802F4415C4A88B1F8E8
:1006A00004E043EA0C03CC881A430D8942EA0E02A7
:1006B0004E8922438F892A43B1F80E8032433A4350
:1006C00042EA08020280828B22F400628283098A55
:1006D0000182BDE8F08100002DE9F04F8BB00420CD
:1006E00001210427FFF724FE202040F60004C1F674
:1006F0000200C4F201040AAD0A9020462946FFF721
:10070000A1FD9020C1F202000A9020462946FFF781
:1007100099FD4FF480500121FFF70AFE4FF08270DF
:1007200005904FF4003006900120C0F200200790A1
:10073000382004F52056089005A93046FFF7A8FF99
:10074000304660210122FFF793FF30460121FFF779
:1007500085FF4FF480200121FFF7DEFD08200121F5
:10076000FFF7E6FD40F20040C1F6030004F58066A5
:100770000A9030462946FFF765FD4FF40060ADF85A
:100780002800304629468DF82B704FF00409FFF7FA
:1007900059FDA4F540460DF1040A4FF4E13B002752
:1007A0004FF4002830465146CDF804B00297CDF8FA
:1007B0000C80ADF8107000F0F9F94FF40030012111
:1007C000FFF7AAFD04200121FFF7B2FD0420C1F6C6
:1007D00003000A9020462946FFF734FD0820ADF8B3
:1007E0002800204629468DF82B90FFF72BFDA4F515
:1007F000444420465146CDE901B7CDF80C80ADF810
:10080000107000F0D3F93046012100F0BFF9204606
:10081000012100F0BBF90BB0BDE8F08F40F2800081
:10082000C2F200000168002908BF70470168013961
:100830000160704741F20400C4F20200016801F057
:100840000C01082941F20021C0F27A0117D1026897
:100850000368C2F38342DB0302F1020205D440F6CF
:100860000011C0F23D01514309E003689B0301D42C
:10087000514304E040F60011C0F23D01514340F203
:100880000002C2F200021160006841F68E71C0F3EE
:100890000310C0F60001085C116821FA00F0106036
:1008A0007047000082B041F20400C4F2020050F828
:1008B000041C002241F0010140F8041C0168CFF63D
:1008C000FF021140016050F8041C4FF6FF72CFF692
:1008D000F662114040F8041C50F8041C21F48021F9
:1008E00040F8041C016821F4FE0101604FF41F016F
:1008F000416000210191009150F8041C41F48031C5
:1009000040F8041C50F8041C01F4003100910199D6
:1009100001310191009919B90199B1F5A06FF1D197
:1009200050F8041C890354BF002101210091009953
:10093000012936D142F20001C4F202010A6842F0F4
:1009400010020A600A6822F007020A600A6842F090
:1009500002020A600168016001680160016841F4F7
:1009600080610160016821F47C110160016841F43B
:10097000E811016050F8041C41F0807140F8041C3B
:1009800050F8041C8901FBD5016821F003010160C6
:10099000016841F002010160016801F00C010829C1
:1009A000FAD14EF60850CEF200004FF0006101601F
:1009B00002B070470288002918BF012122F001020D
:1009C0001144018070470000B0F84420002918BF8E
:1009D00001216FF3DF3242EAC131A0F844107047C1
:1009E000B0B5028C22F001020284038C8288B0F838
:1009F00018C00C8923F002032343A0F180444D88E2
:100A0000A4F59634B1F800E04FEAB424072C43EA89
:100A1000050313D8012505FA04F414F0E50F0DD0F1
:100A20004C8923F00C0324F004048D8823438C8923
:100A30002B4322F44072CD8922432A432CF07305C4
:100A400045EA0E0582800583C98881860384B0BD8E
:100A5000028B22F00802114301837047B0B5028C6B
:100A600022F010020284038C8288B0F818E00C890E
:100A70004D88B1F800C02C4343F2004523F0200319
:100A8000C4F20105A84243EA041305D042F600442B
:100A9000C4F20104A04211D14C896FF0400523F04B
:100AA000C00305EA04148D88234343EA05138C89A7
:100AB000CD8922F440622C4342EA84022EF4E645BA
:100AC00045EA0C2582800583C98801870384B0BD6F
:100AD000028B22F4006242EA012101837047000088
:100AE00040F6FF33B0F800C0C4F2000398420FDCB8
:100AF000B0F1804F1ED040F20043C4F20003984290
:100B000018D040F60003C4F20003984212D016E059
:100B100040F60043C4F2000398420BD043F2004376
:100B2000C4F20103984205D042F60043C4F2010327
:100B3000984204D14B882CF0700243EA020C41F237
:100B4000004240F48063C4F20002934204D0CA8899
:100B50002CF4407342EA030CA0F800C08A88828516
:100B6000A0F18042A2F596320B884FEAB222072A02
:100B7000038507D8012303FA02F212F0E50F1CBF28
:100B8000097A01860121818270470000828900294B
:100B900018BF012122F4005242EA4131818170479D
:100BA0000088084018BF01207047000070B586B06B
:100BB0000446008A0D46C98820F44050084320822C
:100BC000A0894EF6F3110840A9882A896B89084349
:100BD00010431843A081A08AA98920F440700843DB
:100BE00001AEA0823046FFF7AFFB43F6000106F1ED
:100BF0000800C4F201018C4208BF06F10C00006835
:100C00001922B4F90C1050432A680123B1F1FF3FB7
:100C1000C8BF022302FA03F1B0FBF1F048F21F5102
:100C2000C5F2EB11A0FB01235A096FF0630302FB2D
:100C30000300B4F90C300326B3F1FF3FC8BF04260C
:100C400000FA06F000F13200A0FB01014FF00700AE
:100C5000C8BF0F2000EA511040EA0210208106B000
:100C600070BD00006FF35F218180704782B001F09A
:100C7000F9F8FFF731FDFFF7DDFD40F20000C2F2A9
:100C80000000006844F6D351C1F26201A0FB0101EB
:100C90004FF0FF3000EB91104FF00008B8EB106FF1
:100CA0000ED14EF21002CEF2000250604EF62350EA
:100CB000CEF20000F02101700720C2F80880106019
:100CC00042F6004AC4F2010AAAF5105040F280062A
:100CD00040F27C0540F2880740F2700140F274094E
:100CE0000190C2F200060AF58060C2F20005C2F26D
:100CF0000007C2F20001C2F2000900900CE000BF40
:100D000040F26C00C2F20000C0F80080286840F297
:100D10007802C2F20002106001988B468021FFF732
:100D2000F9FA0320306000BF30680028FCD1009839
:100D30000021FFF7ABFC4EF210010820CEF20001BB
:100D4000C1F8F4000320306030680028FCD1286826
:100D500040F29803C2F2000330B1002140F2840255
:100D6000C2F20002116005E040F28401C2F200010B
:100D70000968A9B11978002940F09B80010606D4C2
:100D800040F204034B251420C2F2000318E040F2A5
:100D900004034106C2F2000307D43C2523200FE0E0
:100DA0001978013119700121D8E7810602D43C2558
:100DB0002D2005E010F0180F30D13A25322000BF69
:100DC000198860220844C0F20102F8805046394672
:100DD000A7F804803A60A7F80880FFF701FE5046A4
:100DE0000821FFF735FE40F20400C2F2000000883F
:100DF00039462844F8804FF48020C7F80200504656
:100E0000FFF72CFE50460821FFF762FE40F2040374
:100E100040F27C05C2F20003C2F200052868C10757
:100E200002D11E25282017E0810702D423252B207C
:100E300012E0410702D4232527200DE040F2980359
:100E400010F0180FC2F2000331D140F2040337252D
:100E50003220C2F2000300BF198860220844C0F2A9
:100E60000102F88050463946A7F804803A60A7F896
:100E700008801C46FFF7B4FD50460821FFF7E8FD47
:100E8000208839462844F8804FF48020C7F80200B3
:100E90005046FFF7E3FD50460821FFF719FE40F2E8
:100EA0007C0540F29803C2F20005C2F20003CBF8C1
:100EB000008018785946012840F0008109682868A8
:100EC000B32900F0800107DC40F20403C2F2000302
:100ED00009BB50251E2079E040F20403C2F2000352
:100EE000F1B918886021C0F201010D303960F88035
:100EF00050463946A7F80480A7F80880FFF770FD30
:100F000050460821FFF7A4FD40F20400C2F20000A1
:100F10000088533042E041061ED441251E2055E092
:100F200041061ED418886021C0F2010114303960D6
:100F3000F88050463946A7F80480A7F80880FFF7E4
:100F40004FFD50460821FFF783FD40F20400C2F236
:100F500000000088413021E0810631D43725282067
:100F600034E010F0180F65D118886021C0F201013B
:100F700019303960F88050463946A7F80480A7F840
:100F80000880FFF72DFD50460821FFF761FD40F274
:100F90000400C2F2000000883C3000BFF8804FF42B
:100FA0008020C7F8020050463946FFF757FD5046EB
:100FB0000821FFF78DFD40F20403C2F2000339E07F
:100FC00010F0180F30D137252D2000BF198860226E
:100FD0000844C0F20102F88050463946A7F8048060
:100FE0003A60A7F80880FFF7FBFC50460821FFF79E
:100FF0002FFD40F20400C2F2000000883946284468
:10100000F8804FF48020C7F802005046FFF726FD15
:1010100050460821FFF75CFD40F2040340F27C05D6
:10102000C2F20003C2F20005DBF8000059460130AD
:10103000CBF800002868C10702D11E25322011E03C
:10104000810702D41E2528200CE040F298034007B7
:101050005946C2F2000331D440F20403232528206C
:10106000C2F20003198860220844C0F20102F8802D
:1010700050463946A7F804803A60A7F808801C4615
:10108000FFF7AEFC50460821FFF7E2FC2088394606
:101090002844F8804FF48020C7F802005046FFF73C
:1010A000DDFC50460821FFF713FD40F27C0540F2BD
:1010B0009803C2F200055946C2F2000318780228CC
:1010C00040F0B38040F28400C2F200000068E0BB50
:1010D0002868010602D44B25142008E0410602D4FA
:1010E0003C25232003E080062FD43C252D2040F210
:1010F0000404C2F20004218860220844C0F2010204
:10110000F88050463946A7F804803A60A7F808806E
:10111000FFF766FC50460821FFF79AFC2088394605
:101120002844F8804FF48020C7F802005046FFF7AB
:1011300095FC50460821FFF7CBFC40F27C0540F2BD
:101140009803C2F20005C2F20003287810F0180FCD
:1011500029D140F20404C2F2000420886021C0F2C8
:10116000010128303960F88050463946A7F80480DC
:10117000A7F80880FFF734FC50460821FFF768FC09
:10118000208839463030F8804FF48020C7F80200BC
:101190005046FFF763FC50460821FFF799FC40F2E8
:1011A0009803C2F200032868C10703D11E25282036
:1011B0000AE000BF810702D42825302004E0400760
:1011C00030D428252C2000BF40F20404C2F20004D1
:1011D000218860220844C0F20102F8805046394656
:1011E000A7F804803A60A7F80880FFF7F9FB50469B
:1011F0000821FFF72DFC208839462844F8804FF459
:101200008020C7F802005046FFF728FC504608210E
:10121000FFF75EFC40F27C0540F29803C2F2000545
:10122000C2F200035946CBF800801878032840F03A
:10123000E38009682868A92900F0800108DC40F2F1
:101240000403C2F2000311BB5A2523205CE000BF57
:1012500040F20403C2F20003F1B918886021C0F221
:10126000010112303960F88050463946A7F80480F1
:10127000A7F80880FFF7B4FB50460821FFF7E8FB0A
:1012800040F20400C2F2000000883F3020E0410636
:1012900030D44B25232037E010F0180F68D1188880
:1012A0006021C0F2010128303960F880504639468B
:1012B000A7F80480A7F80880FFF792FB50460821A2
:1012C000FFF7C6FB40F20400C2F20000008837308E
:1012D000F8804FF48020C7F8020050463946FFF7E7
:1012E000BDFB50460821FFF7F3FB40F20403C2F2B6
:1012F00000033DE0810602D43C25322004E010F0DA
:10130000180F2FD13D253520198860220844C0F2DE
:101310000102F88050463946A7F804803A60A7F8E1
:101320000880FFF75DFB50460821FFF791FB40F274
:101330000400C2F20000008839462844F8804FF4C7
:101340008020C7F802005046FFF788FB504608216E
:10135000FFF7BEFB40F2040340F27C05C2F200033B
:10136000C2F20005DBF8000059460130CBF800005E
:101370002868C10702D114252D2011E0810702D46D
:10138000142523200CE040F2980340075946C2F28E
:10139000000331D440F2040319252320C2F20003D4
:1013A000198860220844C0F20102F880504639468C
:1013B000A7F804803A60A7F808801C46FFF710FBE6
:1013C00050460821FFF744FB208839462844F8801E
:1013D0004FF48020C7F802005046FFF73FFB50460D
:1013E0000821FFF775FB40F27C0540F29803C2F23A
:1013F00000055946C2F200031878042857D128681E
:10140000EF2805DC010609D44FF0530912201DE036
:10141000C10709D14FF00509462017E0410609D45C
:101420004FF047090F2011E0810709D44FF00F0951
:101430003D200BE0800637D44FF04409142005E02E
:10144000400731D44FF014093A2000BF40F20404A1
:10145000C2F20004218860220844C0F20102F88030
:1014600050463946A7F804803A60A7F80880FFF78D
:10147000B7FA50460821FFF7EBFA2088394648446E
:10148000F8804FF48020C7F802005046FFF7E6FAD4
:1014900050460821FFF71CFB40F2980340F2740904
:1014A000C2F20003C2F200095946CBF80080187856
:1014B0000538022800F294800868B328C7BF0720C7
:1014C000187001300860286840F20403C2F200037B
:1014D000010603D441250F2010E000BF410602D4CD
:1014E000372519200AE0810602D44125322005E083
:1014F00010F0180F30D13F25372000BF1988602227
:101500000844C0F20102F88050463946A7F804802A
:101510003A60A7F80880FFF763FA50460821FFF702
:1015200097FA40F20400C2F20000008839462844CD
:10153000F8804FF48020C7F802005046FFF78EFA7B
:1015400050460821FFF7C4FA40F2040340F27C053C
:10155000C2F20003C2F200052868C10702D11E25AD
:10156000282011E0810702D423252B200CE040F233
:10157000980340075946C2F2000331D440F20403F5
:1015800023252720C2F20003198860220844C0F2F4
:101590000102F88050463946A7F804803A60A7F85F
:1015A00008801C46FFF71CFA50460821FFF750FA46
:1015B000208839462844F8804FF48020C7F802007C
:1015C0005046FFF74BFA50460821FFF781FA40F2E8
:1015D0007C0540F29803C2F200055946C2F20003AE
:1015E0001878082840F0008109682868B32900F0BD
:1015F000800107DC40F20403C2F2000309BB552559
:10160000232079E040F20403C2F20003F1B9188804
:101610006021C0F2010112303960F880504639462D
:10162000A7F80480A7F80880FFF7DAF950460821E8
:10163000FFF70EFA40F20400C2F2000000884430C6
:1016400042E041061ED44625232055E041061ED423
:1016500018886021C0F2010119303960F8805046C5
:101660003946A7F80480A7F80880FFF7B9F9504673
:101670000821FFF7EDF940F20400C2F200000088F3
:10168000413021E0810631D43725282034E010F0A4
:10169000180F65D118886021C0F201011930396036
:1016A000F88050463946A7F80480A7F80880FFF76D
:1016B00097F950460821FFF7CBF940F20400C2F237
:1016C00000000088373000BFF8804FF48020C7F852
:1016D000020050463946FFF7C1F950460821FFF78E
:1016E000F7F940F20403C2F2000339E010F0180FDA
:1016F00030D13C25322000BF198860220844C0F256
:101700000102F88050463946A7F804803A60A7F8ED
:101710000880FFF765F950460821FFF799F940F274
:101720000400C2F20000008839462844F8804FF4D3
:101730008020C7F802005046FFF790F95046082174
:10174000FFF7C6F940F2040340F27C05C2F2000341
:10175000C2F20005DBF8000059460130CBF800006A
:101760002868C10702D11E25322011E0810702D46A
:101770001E2528200CE040F2980340075946C2F28B
:10178000000331D440F2040323252820C2F20003D1
:10179000198860220844C0F20102F8805046394698
:1017A000A7F804803A60A7F808801C46FFF718F9EC
:1017B00050460821FFF74CF9208839462844F88024
:1017C0004FF48020C7F802005046FFF747F9504613
:1017D0000821FFF77DF940F27C0540F29803C2F240
:1017E00000055946C2F200031878092840F0988095
:1017F0002868010606D440F204034B251420C2F2E7
:10180000000313E040F204034106C2F2000302D4D5
:101810003C2523200AE0810602D43C252D2005E04A
:1018200010F0180F30D13A25322000BF19886022FD
:101830000844C0F20102F88050463946A7F80480F7
:101840003A60A7F80880FFF7CBF850460821FFF769
:10185000FFF840F20400C2F2000000883946284434
:10186000F8804FF48020C7F802005046FFF7F6F8E2
:1018700050460821FFF72CF940F2040340F27C05A2
:10188000C2F20003C2F200052868C10702D11E257A
:10189000282017E0810702D423252B2012E04107DE
:1018A00002D4232527200DE040F2980310F0180FF2
:1018B000C2F2000331D140F2040337253220C2F2D4
:1018C000000300BF198860220844C0F20102F880BA
:1018D00050463946A7F804803A60A7F808801C46AD
:1018E000FFF77EF850460821FFF7B2F82088394606
:1018F0002844F8804FF48020C7F802005046FFF7D4
:10190000ADF850460821FFF7E3F840F27C0540F2BD
:101910009803C2F20005C2F200035946CBF80080DA
:1019200018780A2840F00081096828689F2900F08B
:10193000800107DC40F20403C2F2000309BB552515
:10194000232079E040F20403C2F20003F1B91888C1
:101950006021C0F2010112303960F88050463946EA
:10196000A7F80480A7F80880FFF73AF85046082146
:10197000FFF76EF840F20400C2F200000088443025
:1019800042E041061ED44625232055E041061ED4E0
:1019900018886021C0F2010116303960F880504685
:1019A0003946A7F80480A7F80880FFF719F85046D1
:1019B0000821FFF74DF840F20400C2F20000008851
:1019C0003E3021E0810631D43725282034E010F064
:1019D000180F65D118886021C0F2010117303960F5
:1019E000F88050463946A7F80480A7F80880FEF72B
:1019F000F7FF50460821FFF72BF840F20400C2F22F
:101A000000000088353000BFF8804FF48020C7F810
:101A1000020050463946FFF721F850460821FFF7EB
:101A200057F840F20403C2F2000339E010F0180F37
:101A300030D13C25322000BF198860220844C0F212
:101A40000102F88050463946A7F804803A60A7F8AA
:101A50000880FEF7C5FF50460821FEF7F9FF40F267
:101A60000400C2F20000008839462844F8804FF490
:101A70008020C7F802005046FEF7F0FF50460821CC
:101A8000FFF726F840F2040340F27C05C2F200039F
:101A9000C2F20005DBF8000059460130CBF8000027
:101AA0002868C10702D11E25322011E0810702D427
:101AB0001E2528200CE040F2980340075946C2F248
:101AC000000331D440F2040323252820C2F200038E
:101AD000198860220844C0F20102F8805046394655
:101AE000A7F804803A60A7F808801C46FEF778FF44
:101AF00050460821FEF7ACFF208839462844F8807C
:101B00004FF48020C7F802005046FEF7A7FF50466A
:101B10000821FEF7DDFF40F27C0540F29803C2F297
:101B200000055946C2F2000318780B3803282FD855
:101B3000D9F80000A42825DC0420B8806020386093
:101B40005020C7F8060050463946FEF749FF504678
:101B50000821FEF77DFF4620F8804FF48020C7F86B
:101B6000020050463946FEF779FF50460821FEF73D
:101B7000AFFFD9F8000040F29803C2F200035946C3
:101B8000013003E00F20187000200860C9F8000041
:101B900018780F2837D1D9F80000DB282EDC40F266
:101BA0000404C2F2000420886021C0F20101413027
:101BB0003960F88050463946A7F80480A7F80880B5
:101BC000FEF70EFF50460821FEF742FF20883946F7
:101BD0000A30F8804FF48020C7F802005046FEF724
:101BE0003DFF50460821FEF773FFD9F8000040F290
:101BF0009803C2F200035946013002E01020187029
:101C00000020C9F8000018781038022800F29A80E5
:101C10000868B0F5967FA7BF1020187001300860E3
:101C20002868EF2810DC01061FD4602040F2040968
:101C3000C0F20100C2F200093860D9F80000A7F82C
:101C40000480412556E000BFC1071FD140F20409BE
:101C5000C2F20009B9F800006021C0F20101A7F842
:101C6000048039604630052544E041061FD440F227
:101C70000409C2F20009B9F800006021C0F20101B4
:101C8000A7F8048039600F303D2533E0810720D468
:101C900040F20409C2F20009B9F800006021C0F264
:101CA0000101A7F8048039603D300F2522E080064D
:101CB000594647D440F20409C2F20009B9F80000BD
:101CC0006021C0F20101A7F80480396014303A2580
:101CD00010E04007594635D440F20409C2F2000929
:101CE000B9F800006021C0F201013A301425A7F8CC
:101CF00004803960F88050463946A7F80880FEF71E
:101D00006FFE50460821FEF7A3FEB9F800003946E1
:101D10002844F8804FF48020C7F802005046FEF7B0
:101D20009DFE50460821FEF7D3FE40F27C0540F2AE
:101D3000980340F27409C2F200055946C2F200034A
:101D4000C2F200091878112812D150463946C7F856
:101D50000280FEF745FE50460821FEF779FE504608
:101D60003946FEF77BFE50460821FEF7B1FE594684
:101D70002868FF287EF4C4AF40F26C02C2F2000271
:101D80001068B0F58C7F0BDD50463946C7F80280ED
:101D9000FEF726FE50460821FEF75AFE56E000BF29
:101DA00040F27801C2F200010978013009061060A2
:101DB00025D440F20404C2F2000420886021C0F25D
:101DC000010112303960F88050463946A7F8048086
:101DD000A7F80880FEF704FE50460821FEF738FEFB
:101DE000208839463F30F8804FF48020C7F8020041
:101DF0005046FEF733FE50460821FEF769FE40F2DA
:101E00007800C2F2000000785946C0077EF47EAF29
:101E100040F20404C2F2000420886021C0F20101F3
:101E20003F303960F88050463946A7F80480A7F85B
:101E30000880FEF7D5FD50460821FEF709FE2088F0
:101E40001230F8804FF48020C7F80200504639461F
:101E5000FEF704FE50460821FEF73AFE5946FEF70B
:101E600055BF00002DE9F0438DB00D2001214FF04A
:101E70000108FEF75DFA42F60044A020C4F2010416
:101E8000C1F60200A4F510560CAD0C903046294660
:101E9000FEF7D8F91020C1F202000C903046294616
:101EA000FEF7D0F94FF480500121FEF741FA4FF0D0
:101EB000827007904FF4003008900120C0F200209B
:101EC0000990382004F580670A9007A93846FEF784
:101ED000DFFB3846602101224FF06009FEF7C8FBA6
:101EE00038460121FEF7BAFB40F20030C1F602008D
:101EF0000C9030462946FEF7A5F946F20000C1F6DF
:101F00000200A4F500560C9030462946FEF79AF9D7
:101F10004020C1F202000C9030462946FEF792F9AB
:101F20004FF400600121FEF703FA40F2CF20049045
:101F3000C7200590002504A920468DF81850FEF70B
:101F4000CFFD20460121FEF735FD0420ADF80850F5
:101F50006D46019020462946ADF80090FEF740FD01
:101F600020460821FEF774FD20462946CDF8028060
:101F7000FEF774FD20460821FEF7AAFD2046012148
:101F8000FEF722FD0DB0BDE8F08302040608000054
:101F90000000000000000102030406070809000019
:101FA00000000102030401020304060708090000FF
:101FB000D01F0008000000200800000028010008D1
:101FC000D81F0008080000209806000044010008FF
:081FD00000A24A041200000007
:040000050800018965
:00000001FF
